{
  "_format": "hh-sol-artifact-1",
  "contractName": "TrillionaireToys",
  "sourceName": "contracts/plasma/TrillionaireToys.sol",
  "abi": [
    {
      "inputs": [],
      "stateMutability": "nonpayable",
      "type": "constructor"
    },
    {
      "anonymous": false,
      "inputs": [
        {
          "indexed": true,
          "internalType": "address",
          "name": "owner",
          "type": "address"
        },
        {
          "indexed": true,
          "internalType": "address",
          "name": "approved",
          "type": "address"
        },
        {
          "indexed": true,
          "internalType": "uint256",
          "name": "tokenId",
          "type": "uint256"
        }
      ],
      "name": "Approval",
      "type": "event"
    },
    {
      "anonymous": false,
      "inputs": [
        {
          "indexed": true,
          "internalType": "address",
          "name": "owner",
          "type": "address"
        },
        {
          "indexed": true,
          "internalType": "address",
          "name": "operator",
          "type": "address"
        },
        {
          "indexed": false,
          "internalType": "bool",
          "name": "approved",
          "type": "bool"
        }
      ],
      "name": "ApprovalForAll",
      "type": "event"
    },
    {
      "anonymous": false,
      "inputs": [
        {
          "indexed": true,
          "internalType": "uint64",
          "name": "toyId",
          "type": "uint64"
        },
        {
          "indexed": true,
          "internalType": "uint256",
          "name": "tokenId",
          "type": "uint256"
        },
        {
          "indexed": false,
          "internalType": "uint256",
          "name": "version",
          "type": "uint256"
        },
        {
          "indexed": false,
          "internalType": "uint256",
          "name": "pricePaid",
          "type": "uint256"
        },
        {
          "indexed": true,
          "internalType": "address",
          "name": "to",
          "type": "address"
        }
      ],
      "name": "Minted",
      "type": "event"
    },
    {
      "anonymous": false,
      "inputs": [
        {
          "indexed": true,
          "internalType": "address",
          "name": "newMinter",
          "type": "address"
        }
      ],
      "name": "MinterUpdated",
      "type": "event"
    },
    {
      "anonymous": false,
      "inputs": [
        {
          "indexed": true,
          "internalType": "address",
          "name": "previousOwner",
          "type": "address"
        },
        {
          "indexed": true,
          "internalType": "address",
          "name": "newOwner",
          "type": "address"
        }
      ],
      "name": "OwnershipTransferred",
      "type": "event"
    },
    {
      "anonymous": false,
      "inputs": [
        {
          "indexed": true,
          "internalType": "uint64",
          "name": "toyId",
          "type": "uint64"
        },
        {
          "indexed": false,
          "internalType": "uint128",
          "name": "minPrice",
          "type": "uint128"
        },
        {
          "indexed": false,
          "internalType": "uint128",
          "name": "maxPrice",
          "type": "uint128"
        },
        {
          "indexed": false,
          "internalType": "uint64",
          "name": "rMantissa",
          "type": "uint64"
        },
        {
          "indexed": false,
          "internalType": "string",
          "name": "baseURI",
          "type": "string"
        }
      ],
      "name": "ToyConfigured",
      "type": "event"
    },
    {
      "anonymous": false,
      "inputs": [
        {
          "indexed": true,
          "internalType": "address",
          "name": "from",
          "type": "address"
        },
        {
          "indexed": true,
          "internalType": "address",
          "name": "to",
          "type": "address"
        },
        {
          "indexed": true,
          "internalType": "uint256",
          "name": "tokenId",
          "type": "uint256"
        }
      ],
      "name": "Transfer",
      "type": "event"
    },
    {
      "inputs": [
        {
          "internalType": "address",
          "name": "to",
          "type": "address"
        },
        {
          "internalType": "uint256",
          "name": "tokenId",
          "type": "uint256"
        }
      ],
      "name": "approve",
      "outputs": [],
      "stateMutability": "nonpayable",
      "type": "function"
    },
    {
      "inputs": [
        {
          "internalType": "address",
          "name": "owner",
          "type": "address"
        }
      ],
      "name": "balanceOf",
      "outputs": [
        {
          "internalType": "uint256",
          "name": "",
          "type": "uint256"
        }
      ],
      "stateMutability": "view",
      "type": "function"
    },
    {
      "inputs": [
        {
          "internalType": "uint64",
          "name": "toyId",
          "type": "uint64"
        },
        {
          "internalType": "uint128",
          "name": "minPrice",
          "type": "uint128"
        },
        {
          "internalType": "uint128",
          "name": "maxPrice",
          "type": "uint128"
        },
        {
          "internalType": "uint64",
          "name": "rMantissa",
          "type": "uint64"
        },
        {
          "internalType": "string",
          "name": "baseURI",
          "type": "string"
        }
      ],
      "name": "configureToy",
      "outputs": [],
      "stateMutability": "nonpayable",
      "type": "function"
    },
    {
      "inputs": [
        {
          "internalType": "uint64",
          "name": "toyId",
          "type": "uint64"
        }
      ],
      "name": "currentPrice",
      "outputs": [
        {
          "internalType": "uint256",
          "name": "",
          "type": "uint256"
        }
      ],
      "stateMutability": "view",
      "type": "function"
    },
    {
      "inputs": [
        {
          "internalType": "uint256",
          "name": "tokenId",
          "type": "uint256"
        }
      ],
      "name": "getApproved",
      "outputs": [
        {
          "internalType": "address",
          "name": "",
          "type": "address"
        }
      ],
      "stateMutability": "view",
      "type": "function"
    },
    {
      "inputs": [
        {
          "internalType": "uint64",
          "name": "toyId",
          "type": "uint64"
        }
      ],
      "name": "getLeader",
      "outputs": [
        {
          "internalType": "address",
          "name": "owner_",
          "type": "address"
        },
        {
          "internalType": "uint256",
          "name": "price_",
          "type": "uint256"
        },
        {
          "internalType": "uint256",
          "name": "tokenId_",
          "type": "uint256"
        }
      ],
      "stateMutability": "view",
      "type": "function"
    },
    {
      "inputs": [
        {
          "internalType": "address",
          "name": "owner",
          "type": "address"
        },
        {
          "internalType": "address",
          "name": "operator",
          "type": "address"
        }
      ],
      "name": "isApprovedForAll",
      "outputs": [
        {
          "internalType": "bool",
          "name": "",
          "type": "bool"
        }
      ],
      "stateMutability": "view",
      "type": "function"
    },
    {
      "inputs": [
        {
          "internalType": "uint64",
          "name": "",
          "type": "uint64"
        }
      ],
      "name": "leaderOwner",
      "outputs": [
        {
          "internalType": "address",
          "name": "",
          "type": "address"
        }
      ],
      "stateMutability": "view",
      "type": "function"
    },
    {
      "inputs": [
        {
          "internalType": "uint64",
          "name": "",
          "type": "uint64"
        }
      ],
      "name": "leaderPrice",
      "outputs": [
        {
          "internalType": "uint256",
          "name": "",
          "type": "uint256"
        }
      ],
      "stateMutability": "view",
      "type": "function"
    },
    {
      "inputs": [
        {
          "internalType": "uint64",
          "name": "",
          "type": "uint64"
        }
      ],
      "name": "leaderTokenId",
      "outputs": [
        {
          "internalType": "uint256",
          "name": "",
          "type": "uint256"
        }
      ],
      "stateMutability": "view",
      "type": "function"
    },
    {
      "inputs": [
        {
          "internalType": "address",
          "name": "to",
          "type": "address"
        },
        {
          "internalType": "uint64",
          "name": "toyId",
          "type": "uint64"
        },
        {
          "internalType": "uint256",
          "name": "quotedPrice",
          "type": "uint256"
        },
        {
          "internalType": "uint256",
          "name": "deadline",
          "type": "uint256"
        },
        {
          "internalType": "bytes",
          "name": "memoSig",
          "type": "bytes"
        }
      ],
      "name": "mintTo",
      "outputs": [],
      "stateMutability": "nonpayable",
      "type": "function"
    },
    {
      "inputs": [
        {
          "internalType": "uint64",
          "name": "",
          "type": "uint64"
        }
      ],
      "name": "mintedCount",
      "outputs": [
        {
          "internalType": "uint256",
          "name": "",
          "type": "uint256"
        }
      ],
      "stateMutability": "view",
      "type": "function"
    },
    {
      "inputs": [],
      "name": "minter",
      "outputs": [
        {
          "internalType": "address",
          "name": "",
          "type": "address"
        }
      ],
      "stateMutability": "view",
      "type": "function"
    },
    {
      "inputs": [],
      "name": "name",
      "outputs": [
        {
          "internalType": "string",
          "name": "",
          "type": "string"
        }
      ],
      "stateMutability": "view",
      "type": "function"
    },
    {
      "inputs": [],
      "name": "owner",
      "outputs": [
        {
          "internalType": "address",
          "name": "",
          "type": "address"
        }
      ],
      "stateMutability": "view",
      "type": "function"
    },
    {
      "inputs": [
        {
          "internalType": "uint256",
          "name": "tokenId",
          "type": "uint256"
        }
      ],
      "name": "ownerOf",
      "outputs": [
        {
          "internalType": "address",
          "name": "",
          "type": "address"
        }
      ],
      "stateMutability": "view",
      "type": "function"
    },
    {
      "inputs": [
        {
          "internalType": "uint256",
          "name": "",
          "type": "uint256"
        }
      ],
      "name": "priceAtMint",
      "outputs": [
        {
          "internalType": "uint256",
          "name": "",
          "type": "uint256"
        }
      ],
      "stateMutability": "view",
      "type": "function"
    },
    {
      "inputs": [],
      "name": "renounceOwnership",
      "outputs": [],
      "stateMutability": "nonpayable",
      "type": "function"
    },
    {
      "inputs": [
        {
          "internalType": "address",
          "name": "from",
          "type": "address"
        },
        {
          "internalType": "address",
          "name": "to",
          "type": "address"
        },
        {
          "internalType": "uint256",
          "name": "tokenId",
          "type": "uint256"
        }
      ],
      "name": "safeTransferFrom",
      "outputs": [],
      "stateMutability": "nonpayable",
      "type": "function"
    },
    {
      "inputs": [
        {
          "internalType": "address",
          "name": "from",
          "type": "address"
        },
        {
          "internalType": "address",
          "name": "to",
          "type": "address"
        },
        {
          "internalType": "uint256",
          "name": "tokenId",
          "type": "uint256"
        },
        {
          "internalType": "bytes",
          "name": "data",
          "type": "bytes"
        }
      ],
      "name": "safeTransferFrom",
      "outputs": [],
      "stateMutability": "nonpayable",
      "type": "function"
    },
    {
      "inputs": [
        {
          "internalType": "address",
          "name": "operator",
          "type": "address"
        },
        {
          "internalType": "bool",
          "name": "approved",
          "type": "bool"
        }
      ],
      "name": "setApprovalForAll",
      "outputs": [],
      "stateMutability": "nonpayable",
      "type": "function"
    },
    {
      "inputs": [
        {
          "internalType": "address",
          "name": "newMinter",
          "type": "address"
        }
      ],
      "name": "setMinter",
      "outputs": [],
      "stateMutability": "nonpayable",
      "type": "function"
    },
    {
      "inputs": [
        {
          "internalType": "bytes4",
          "name": "interfaceId",
          "type": "bytes4"
        }
      ],
      "name": "supportsInterface",
      "outputs": [
        {
          "internalType": "bool",
          "name": "",
          "type": "bool"
        }
      ],
      "stateMutability": "view",
      "type": "function"
    },
    {
      "inputs": [],
      "name": "symbol",
      "outputs": [
        {
          "internalType": "string",
          "name": "",
          "type": "string"
        }
      ],
      "stateMutability": "view",
      "type": "function"
    },
    {
      "inputs": [
        {
          "internalType": "uint256",
          "name": "index",
          "type": "uint256"
        }
      ],
      "name": "tokenByIndex",
      "outputs": [
        {
          "internalType": "uint256",
          "name": "",
          "type": "uint256"
        }
      ],
      "stateMutability": "view",
      "type": "function"
    },
    {
      "inputs": [
        {
          "internalType": "address",
          "name": "owner",
          "type": "address"
        },
        {
          "internalType": "uint256",
          "name": "index",
          "type": "uint256"
        }
      ],
      "name": "tokenOfOwnerByIndex",
      "outputs": [
        {
          "internalType": "uint256",
          "name": "",
          "type": "uint256"
        }
      ],
      "stateMutability": "view",
      "type": "function"
    },
    {
      "inputs": [
        {
          "internalType": "uint256",
          "name": "tokenId",
          "type": "uint256"
        }
      ],
      "name": "tokenToyId",
      "outputs": [
        {
          "internalType": "uint64",
          "name": "",
          "type": "uint64"
        }
      ],
      "stateMutability": "pure",
      "type": "function"
    },
    {
      "inputs": [
        {
          "internalType": "uint256",
          "name": "tokenId",
          "type": "uint256"
        }
      ],
      "name": "tokenURI",
      "outputs": [
        {
          "internalType": "string",
          "name": "",
          "type": "string"
        }
      ],
      "stateMutability": "view",
      "type": "function"
    },
    {
      "inputs": [
        {
          "internalType": "uint256",
          "name": "tokenId",
          "type": "uint256"
        }
      ],
      "name": "tokenVersion",
      "outputs": [
        {
          "internalType": "uint256",
          "name": "",
          "type": "uint256"
        }
      ],
      "stateMutability": "pure",
      "type": "function"
    },
    {
      "inputs": [],
      "name": "totalSupply",
      "outputs": [
        {
          "internalType": "uint256",
          "name": "",
          "type": "uint256"
        }
      ],
      "stateMutability": "view",
      "type": "function"
    },
    {
      "inputs": [
        {
          "internalType": "uint64",
          "name": "",
          "type": "uint64"
        }
      ],
      "name": "toys",
      "outputs": [
        {
          "internalType": "uint64",
          "name": "toyId",
          "type": "uint64"
        },
        {
          "internalType": "uint128",
          "name": "minPrice",
          "type": "uint128"
        },
        {
          "internalType": "uint128",
          "name": "maxPrice",
          "type": "uint128"
        },
        {
          "internalType": "uint64",
          "name": "rMantissa",
          "type": "uint64"
        },
        {
          "internalType": "string",
          "name": "baseURI",
          "type": "string"
        }
      ],
      "stateMutability": "view",
      "type": "function"
    },
    {
      "inputs": [
        {
          "internalType": "address",
          "name": "from",
          "type": "address"
        },
        {
          "internalType": "address",
          "name": "to",
          "type": "address"
        },
        {
          "internalType": "uint256",
          "name": "tokenId",
          "type": "uint256"
        }
      ],
      "name": "transferFrom",
      "outputs": [],
      "stateMutability": "nonpayable",
      "type": "function"
    },
    {
      "inputs": [
        {
          "internalType": "address",
          "name": "newOwner",
          "type": "address"
        }
      ],
      "name": "transferOwnership",
      "outputs": [],
      "stateMutability": "nonpayable",
      "type": "function"
    }
  ],
  "bytecode": "0x60806040523480156200001157600080fd5b50604051806040016040528060118152602001705472696c6c696f6e6169726520546f797360781b81525060405180604001604052806002815260200161151560f21b815250816000908162000068919062000197565b50600162000077828262000197565b505050620000946200008e6200009a60201b60201c565b6200009e565b62000263565b3390565b600a80546001600160a01b038381166001600160a01b0319831681179093556040519116919082907f8be0079c531659141344cd1fd0a4f28419497f9722a3daafe3b4186f6b6457e090600090a35050565b634e487b7160e01b600052604160045260246000fd5b600181811c908216806200011b57607f821691505b6020821081036200013c57634e487b7160e01b600052602260045260246000fd5b50919050565b601f82111562000192576000816000526020600020601f850160051c810160208610156200016d5750805b601f850160051c820191505b818110156200018e5782815560010162000179565b5050505b505050565b81516001600160401b03811115620001b357620001b3620000f0565b620001cb81620001c4845462000106565b8462000142565b602080601f831160018114620002035760008415620001ea5750858301515b600019600386901b1c1916600185901b1785556200018e565b600085815260208120601f198616915b82811015620002345788860151825594840194600190910190840162000213565b5085821015620002535787850151600019600388901b60f8161c191681555b5050505050600190811b01905550565b6127c280620002736000396000f3fe608060405234801561001057600080fd5b50600436106101fb5760003560e01c80638da5cb5b1161011a578063c87b56dd116100ad578063e985e9c51161007c578063e985e9c5146104e3578063e9dcfd301461051f578063f1ed4ebd1461054a578063f2fde38b1461055d578063fca3b5aa1461057057600080fd5b8063c87b56dd14610470578063cc94523c14610483578063daaac57f146104a3578063dae3dd1b146104c357600080fd5b8063a22cb465116100e9578063a22cb465146103b2578063b3384cc8146103c5578063b88d4fde14610434578063c4d6fed81461044757600080fd5b80638da5cb5b146103735780639561de2f1461038457806395d89b41146103975780639c7ad1031461039f57600080fd5b80632f745c591161019257806370a082311161016157806370a0823114610314578063715018a61461032757806379c2c0e71461032f5780638c4a24f41461035357600080fd5b80632f745c59146102c857806342842e0e146102db5780634f6ccce7146102ee5780636352211e1461030157600080fd5b8063095ea7b3116101ce578063095ea7b31461027b57806318160ddd1461029057806318cec5ee146102a257806323b872dd146102b557600080fd5b806301ffc9a71461020057806306fdde0314610228578063075461721461023d578063081812fc14610268575b600080fd5b61021361020e366004611f69565b610583565b60405190151581526020015b60405180910390f35b610230610594565b60405161021f9190611fd6565b601154610250906001600160a01b031681565b6040516001600160a01b03909116815260200161021f565b610250610276366004611fe9565b610626565b61028e61028936600461201e565b61064d565b005b6008545b60405190815260200161021f565b6102946102b036600461205f565b610767565b61028e6102c336600461207a565b610969565b6102946102d636600461201e565b61099a565b61028e6102e936600461207a565b610a30565b6102946102fc366004611fe9565b610a4b565b61025061030f366004611fe9565b610ade565b6102946103223660046120b6565b610b3e565b61028e610bc4565b61034261033d36600461205f565b610bd8565b60405161021f9594939291906120d1565b610294610361366004611fe9565b600d6020526000908152604090205481565b600a546001600160a01b0316610250565b61028e610392366004612167565b610cae565b610230610ed8565b6102946103ad366004611fe9565b610ee7565b61028e6103c03660046121de565b610ef6565b61040f6103d336600461205f565b6001600160401b03166000908152600e6020908152604080832054600f83528184205460109093529220546001600160a01b0390921692909190565b604080516001600160a01b03909416845260208401929092529082015260600161021f565b61028e610442366004612230565b610f05565b61025061045536600461205f565b600e602052600090815260409020546001600160a01b031681565b61023061047e366004611fe9565b610f3d565b61029461049136600461205f565b600f6020526000908152604090205481565b6102946104b136600461205f565b600c6020526000908152604090205481565b6102946104d136600461205f565b60106020526000908152604090205481565b6102136104f136600461230b565b6001600160a01b03918216600090815260056020908152604080832093909416825291909152205460ff1690565b61053261052d366004611fe9565b610fb1565b6040516001600160401b03909116815260200161021f565b61028e610558366004612355565b610fc0565b61028e61056b3660046120b6565b611227565b61028e61057e3660046120b6565b6112a0565b600061058e826112f2565b92915050565b6060600080546105a3906123bc565b80601f01602080910402602001604051908101604052809291908181526020018280546105cf906123bc565b801561061c5780601f106105f15761010080835404028352916020019161061c565b820191906000526020600020905b8154815290600101906020018083116105ff57829003601f168201915b5050505050905090565b600061063182611317565b506000908152600460205260409020546001600160a01b031690565b600061065882610ade565b9050806001600160a01b0316836001600160a01b0316036106ca5760405162461bcd60e51b815260206004820152602160248201527f4552433732313a20617070726f76616c20746f2063757272656e74206f776e656044820152603960f91b60648201526084015b60405180910390fd5b336001600160a01b03821614806106e657506106e681336104f1565b6107585760405162461bcd60e51b815260206004820152603d60248201527f4552433732313a20617070726f76652063616c6c6572206973206e6f7420746f60448201527f6b656e206f776e6572206f7220617070726f76656420666f7220616c6c00000060648201526084016106c1565b6107628383611376565b505050565b6001600160401b038082166000908152600b60209081526040808320815160a081018352815480871682526001600160801b03600160401b909104811694820194909452600182015493841692810192909252600160801b90920490931660608401526002810180549293849390929160808401916107e5906123bc565b80601f0160208091040260200160405190810160405280929190818152602001828054610811906123bc565b801561085e5780601f106108335761010080835404028352916020019161085e565b820191906000526020600020905b81548152906001019060200180831161084157829003601f168201915b505050505081525050905080600001516001600160401b03166000036108b45760405162461bcd60e51b815260206004820152600b60248201526a756e6b6e6f776e20746f7960a81b60448201526064016106c1565b6001600160401b038084166000908152600c6020526040812054606084015190926108e09116836113e4565b905060006108f1620f4240846113e4565b8285602001516001600160801b031661090a919061240c565b6109149190612439565b905083604001516001600160801b031681111561093b575060408301516001600160801b03165b83602001516001600160801b0316811015610960575060208301516001600160801b03165b95945050505050565b6109733382611445565b61098f5760405162461bcd60e51b81526004016106c19061244d565b6107628383836114c4565b60006109a583610b3e565b8210610a075760405162461bcd60e51b815260206004820152602b60248201527f455243373231456e756d657261626c653a206f776e657220696e646578206f7560448201526a74206f6620626f756e647360a81b60648201526084016106c1565b506001600160a01b03919091166000908152600660209081526040808320938352929052205490565b61076283838360405180602001604052806000815250610f05565b6000610a5660085490565b8210610ab95760405162461bcd60e51b815260206004820152602c60248201527f455243373231456e756d657261626c653a20676c6f62616c20696e646578206f60448201526b7574206f6620626f756e647360a01b60648201526084016106c1565b60088281548110610acc57610acc61249a565b90600052602060002001549050919050565b6000818152600260205260408120546001600160a01b03168061058e5760405162461bcd60e51b8152602060048201526018602482015277115490cdcc8c4e881a5b9d985b1a59081d1bdad95b88125160421b60448201526064016106c1565b60006001600160a01b038216610ba85760405162461bcd60e51b815260206004820152602960248201527f4552433732313a2061646472657373207a65726f206973206e6f7420612076616044820152683634b21037bbb732b960b91b60648201526084016106c1565b506001600160a01b031660009081526003602052604090205490565b610bcc611635565b610bd6600061168f565b565b600b602052600090815260409020805460018201546002830180546001600160401b03808516956001600160801b03600160401b909604861695851694600160801b9004909116929091610c2b906123bc565b80601f0160208091040260200160405190810160405280929190818152602001828054610c57906123bc565b8015610ca45780601f10610c7957610100808354040283529160200191610ca4565b820191906000526020600020905b815481529060010190602001808311610c8757829003601f168201915b5050505050905085565b600a546001600160a01b0316331480610cd157506011546001600160a01b031633145b610d0e5760405162461bcd60e51b815260206004820152600e60248201526d1b9bdd08185d5d1a1bdc9a5e995960921b60448201526064016106c1565b82421115610d4e5760405162461bcd60e51b815260206004820152600d60248201526c1c5d5bdd1948195e1c1a5c9959609a1b60448201526064016106c1565b6000610d5986610767565b9050808514610d9a5760405162461bcd60e51b815260206004820152600d60248201526c1c1c9a58d94818da185b99d959609a1b60448201526064016106c1565b6001600160401b0386166000818152600c6020526040812054918290610dc490620f42409061240c565b610dce91906124b0565b9050610ddb8260016124b0565b6001600160401b0389166000908152600c6020526040902055610dfe89826116e1565b6000818152600d602090815260408083208690556001600160401b038b168352600f909152902054831115610e76576001600160401b0388166000908152600f60209081526040808320869055600e825280832080546001600160a01b0319166001600160a01b038e16179055601090915290208190555b886001600160a01b031681896001600160401b03167fa57d11ba6aa6389bd85b56e4bf95036faebe6129379c685dca65e7c8200be8d28587604051610ec5929190918252602082015260400190565b60405180910390a4505050505050505050565b6060600180546105a3906123bc565b600061058e620f4240836124c3565b610f013383836116fb565b5050565b610f0f3383611445565b610f2b5760405162461bcd60e51b81526004016106c19061244d565b610f37848484846117c9565b50505050565b6060610f4882611317565b6000610f5f60408051602081019091526000815290565b90506000815111610f7f5760405180602001604052806000815250610faa565b80610f89846117fc565b604051602001610f9a9291906124d7565b6040516020818303038152906040525b9392505050565b600061058e620f424083612439565b610fc8611635565b6000866001600160401b03161161100b5760405162461bcd60e51b81526020600482015260076024820152660746f7949643d360cc1b60448201526064016106c1565b6000856001600160801b03161180156110365750846001600160801b0316846001600160801b031610155b6110745760405162461bcd60e51b815260206004820152600f60248201526e6261642070726963652072616e676560881b60448201526064016106c1565b611082620f424060016124b0565b836001600160401b031610156110c85760405162461bcd60e51b815260206004820152600b60248201526a1c881d1bdbc81cdb585b1b60aa1b60448201526064016106c1565b6040518060a00160405280876001600160401b03168152602001866001600160801b03168152602001856001600160801b03168152602001846001600160401b0316815260200183838080601f01602080910402602001604051908101604052809392919081815260200183838082843760009201829052509390945250506001600160401b03808a168252600b602090815260409283902085518154928701516001600160801b03908116600160401b026001600160c01b031994851692861692909217919091178255938601516001820180546060890151909516600160801b0294909316941693909317919091179055608083015190915060028201906111d29082612556565b50905050856001600160401b03167fb50b74669b831f104971ec1775f5123bf2a307fe20957ed145bc3cb743e7172d8686868686604051611217959493929190612615565b60405180910390a2505050505050565b61122f611635565b6001600160a01b0381166112945760405162461bcd60e51b815260206004820152602660248201527f4f776e61626c653a206e6577206f776e657220697320746865207a65726f206160448201526564647265737360d01b60648201526084016106c1565b61129d8161168f565b50565b6112a8611635565b601180546001600160a01b0319166001600160a01b0383169081179091556040517fad0f299ec81a386c98df0ac27dae11dd020ed1b56963c53a7292e7a3a314539a90600090a250565b60006001600160e01b0319821663780e9d6360e01b148061058e575061058e8261188e565b6000818152600260205260409020546001600160a01b031661129d5760405162461bcd60e51b8152602060048201526018602482015277115490cdcc8c4e881a5b9d985b1a59081d1bdad95b88125160421b60448201526064016106c1565b600081815260046020526040902080546001600160a01b0319166001600160a01b03841690811790915581906113ab82610ade565b6001600160a01b03167f8c5be1e5ebec7d5bd14f71427d1e84f3dd0314c0f7b2291e5b200ac8c7c3b92560405160405180910390a45050565b6000620f424083835b801561143b578060011660010361141957620f424061140c838561240c565b6114169190612439565b92505b620f4240611427838061240c565b6114319190612439565b915060011c6113ed565b5090949350505050565b60008061145183610ade565b9050806001600160a01b0316846001600160a01b0316148061149857506001600160a01b0380821660009081526005602090815260408083209388168352929052205460ff165b806114bc5750836001600160a01b03166114b184610626565b6001600160a01b0316145b949350505050565b826001600160a01b03166114d782610ade565b6001600160a01b0316146114fd5760405162461bcd60e51b81526004016106c190612672565b6001600160a01b03821661155f5760405162461bcd60e51b8152602060048201526024808201527f4552433732313a207472616e7366657220746f20746865207a65726f206164646044820152637265737360e01b60648201526084016106c1565b61156c83838360016118de565b826001600160a01b031661157f82610ade565b6001600160a01b0316146115a55760405162461bcd60e51b81526004016106c190612672565b600081815260046020908152604080832080546001600160a01b03199081169091556001600160a01b0387811680865260038552838620805460001901905590871680865283862080546001019055868652600290945282852080549092168417909155905184937fddf252ad1be2c89b69c2b068fc378daa952ba7f163c4a11628f55a4df523b3ef91a4505050565b600a546001600160a01b03163314610bd65760405162461bcd60e51b815260206004820181905260248201527f4f776e61626c653a2063616c6c6572206973206e6f7420746865206f776e657260448201526064016106c1565b600a80546001600160a01b038381166001600160a01b0319831681179093556040519116919082907f8be0079c531659141344cd1fd0a4f28419497f9722a3daafe3b4186f6b6457e090600090a35050565b610f018282604051806020016040528060008152506118ea565b816001600160a01b0316836001600160a01b03160361175c5760405162461bcd60e51b815260206004820152601960248201527f4552433732313a20617070726f766520746f2063616c6c65720000000000000060448201526064016106c1565b6001600160a01b03838116600081815260056020908152604080832094871680845294825291829020805460ff191686151590811790915591519182527f17307eab39ab6107e8899845ad3d59bd9653f200f220920489ca2b5937696c31910160405180910390a3505050565b6117d48484846114c4565b6117e08484848461191d565b610f375760405162461bcd60e51b81526004016106c1906126b7565b6060600061180983611a1e565b60010190506000816001600160401b038111156118285761182861221a565b6040519080825280601f01601f191660200182016040528015611852576020820181803683370190505b5090508181016020015b600019016f181899199a1a9b1b9c1cb0b131b232b360811b600a86061a8153600a850494508461185c57509392505050565b60006001600160e01b031982166380ac58cd60e01b14806118bf57506001600160e01b03198216635b5e139f60e01b145b8061058e57506301ffc9a760e01b6001600160e01b031983161461058e565b610f3784848484611af6565b6118f48383611c2a565b611901600084848461191d565b6107625760405162461bcd60e51b81526004016106c1906126b7565b60006001600160a01b0384163b15611a1357604051630a85bd0160e11b81526001600160a01b0385169063150b7a0290611961903390899088908890600401612709565b6020604051808303816000875af192505050801561199c575060408051601f3d908101601f1916820190925261199991810190612746565b60015b6119f9573d8080156119ca576040519150601f19603f3d011682016040523d82523d6000602084013e6119cf565b606091505b5080516000036119f15760405162461bcd60e51b81526004016106c1906126b7565b805181602001fd5b6001600160e01b031916630a85bd0160e11b1490506114bc565b506001949350505050565b60008072184f03e93ff9f4daa797ed6e38ed64bf6a1f0160401b8310611a5d5772184f03e93ff9f4daa797ed6e38ed64bf6a1f0160401b830492506040015b6d04ee2d6d415b85acef81000000008310611a89576d04ee2d6d415b85acef8100000000830492506020015b662386f26fc100008310611aa757662386f26fc10000830492506010015b6305f5e1008310611abf576305f5e100830492506008015b6127108310611ad357612710830492506004015b60648310611ae5576064830492506002015b600a831061058e5760010192915050565b6001811115611b655760405162461bcd60e51b815260206004820152603560248201527f455243373231456e756d657261626c653a20636f6e7365637574697665207472604482015274185b9cd9995c9cc81b9bdd081cdd5c1c1bdc9d1959605a1b60648201526084016106c1565b816001600160a01b038516611bc157611bbc81600880546000838152600960205260408120829055600182018355919091527ff3f7a9fe364faab93b216da50a3214154f22a0a2b415b23a84c8169e8b636ee30155565b611be4565b836001600160a01b0316856001600160a01b031614611be457611be48582611dc3565b6001600160a01b038416611c0057611bfb81611e60565b611c23565b846001600160a01b0316846001600160a01b031614611c2357611c238482611f0f565b5050505050565b6001600160a01b038216611c805760405162461bcd60e51b815260206004820181905260248201527f4552433732313a206d696e7420746f20746865207a65726f206164647265737360448201526064016106c1565b6000818152600260205260409020546001600160a01b031615611ce55760405162461bcd60e51b815260206004820152601c60248201527f4552433732313a20746f6b656e20616c7265616479206d696e7465640000000060448201526064016106c1565b611cf36000838360016118de565b6000818152600260205260409020546001600160a01b031615611d585760405162461bcd60e51b815260206004820152601c60248201527f4552433732313a20746f6b656e20616c7265616479206d696e7465640000000060448201526064016106c1565b6001600160a01b038216600081815260036020908152604080832080546001019055848352600290915280822080546001600160a01b0319168417905551839291907fddf252ad1be2c89b69c2b068fc378daa952ba7f163c4a11628f55a4df523b3ef908290a45050565b60006001611dd084610b3e565b611dda9190612763565b600083815260076020526040902054909150808214611e2d576001600160a01b03841660009081526006602090815260408083208584528252808320548484528184208190558352600790915290208190555b5060009182526007602090815260408084208490556001600160a01b039094168352600681528383209183525290812055565b600854600090611e7290600190612763565b60008381526009602052604081205460088054939450909284908110611e9a57611e9a61249a565b906000526020600020015490508060088381548110611ebb57611ebb61249a565b6000918252602080832090910192909255828152600990915260408082208490558582528120556008805480611ef357611ef3612776565b6001900381819060005260206000200160009055905550505050565b6000611f1a83610b3e565b6001600160a01b039093166000908152600660209081526040808320868452825280832085905593825260079052919091209190915550565b6001600160e01b03198116811461129d57600080fd5b600060208284031215611f7b57600080fd5b8135610faa81611f53565b60005b83811015611fa1578181015183820152602001611f89565b50506000910152565b60008151808452611fc2816020860160208601611f86565b601f01601f19169290920160200192915050565b602081526000610faa6020830184611faa565b600060208284031215611ffb57600080fd5b5035919050565b80356001600160a01b038116811461201957600080fd5b919050565b6000806040838503121561203157600080fd5b61203a83612002565b946020939093013593505050565b80356001600160401b038116811461201957600080fd5b60006020828403121561207157600080fd5b610faa82612048565b60008060006060848603121561208f57600080fd5b61209884612002565b92506120a660208501612002565b9150604084013590509250925092565b6000602082840312156120c857600080fd5b610faa82612002565b6001600160401b0386811682526001600160801b038681166020840152851660408301528316606082015260a06080820181905260009061211490830184611faa565b979650505050505050565b60008083601f84011261213157600080fd5b5081356001600160401b0381111561214857600080fd5b60208301915083602082850101111561216057600080fd5b9250929050565b60008060008060008060a0878903121561218057600080fd5b61218987612002565b955061219760208801612048565b9450604087013593506060870135925060808701356001600160401b038111156121c057600080fd5b6121cc89828a0161211f565b979a9699509497509295939492505050565b600080604083850312156121f157600080fd5b6121fa83612002565b91506020830135801515811461220f57600080fd5b809150509250929050565b634e487b7160e01b600052604160045260246000fd5b6000806000806080858703121561224657600080fd5b61224f85612002565b935061225d60208601612002565b92506040850135915060608501356001600160401b038082111561228057600080fd5b818701915087601f83011261229457600080fd5b8135818111156122a6576122a661221a565b604051601f8201601f19908116603f011681019083821181831017156122ce576122ce61221a565b816040528281528a60208487010111156122e757600080fd5b82602086016020830137600060208483010152809550505050505092959194509250565b6000806040838503121561231e57600080fd5b61232783612002565b915061233560208401612002565b90509250929050565b80356001600160801b038116811461201957600080fd5b60008060008060008060a0878903121561236e57600080fd5b61237787612048565b95506123856020880161233e565b94506123936040880161233e565b93506123a160608801612048565b925060808701356001600160401b038111156121c057600080fd5b600181811c908216806123d057607f821691505b6020821081036123f057634e487b7160e01b600052602260045260246000fd5b50919050565b634e487b7160e01b600052601160045260246000fd5b808202811582820484141761058e5761058e6123f6565b634e487b7160e01b600052601260045260246000fd5b60008261244857612448612423565b500490565b6020808252602d908201527f4552433732313a2063616c6c6572206973206e6f7420746f6b656e206f776e6560408201526c1c881bdc88185c1c1c9bdd9959609a1b606082015260800190565b634e487b7160e01b600052603260045260246000fd5b8082018082111561058e5761058e6123f6565b6000826124d2576124d2612423565b500690565b600083516124e9818460208801611f86565b8351908301906124fd818360208801611f86565b01949350505050565b601f821115610762576000816000526020600020601f850160051c8101602086101561252f5750805b601f850160051c820191505b8181101561254e5782815560010161253b565b505050505050565b81516001600160401b0381111561256f5761256f61221a565b6125838161257d84546123bc565b84612506565b602080601f8311600181146125b857600084156125a05750858301515b600019600386901b1c1916600185901b17855561254e565b600085815260208120601f198616915b828110156125e7578886015182559484019460019091019084016125c8565b50858210156126055787850151600019600388901b60f8161c191681555b5050505050600190811b01905550565b60006001600160801b0380881683528087166020840152506001600160401b038516604083015260806060830152826080830152828460a0840137600060a0848401015260a0601f19601f85011683010190509695505050505050565b60208082526025908201527f4552433732313a207472616e736665722066726f6d20696e636f72726563742060408201526437bbb732b960d91b606082015260800190565b60208082526032908201527f4552433732313a207472616e7366657220746f206e6f6e20455243373231526560408201527131b2b4bb32b91034b6b83632b6b2b73a32b960711b606082015260800190565b6001600160a01b038581168252841660208201526040810183905260806060820181905260009061273c90830184611faa565b9695505050505050565b60006020828403121561275857600080fd5b8151610faa81611f53565b8181038181111561058e5761058e6123f6565b634e487b7160e01b600052603160045260246000fdfea2646970667358221220ccbcf795fda2e7ea1ecd6eae479d4c984f1511b2e32214a7cdc22cd871651e6c64736f6c63430008170033",
  "linkReferences": {},
  "deployedLinkReferences": {}
}