{
  "_format": "hh-sol-artifact-1",
  "contractName": "PaymentRouter",
  "sourceName": "contracts/PaymentRouter.sol",
  "abi": [
    {
      "inputs": [],
      "stateMutability": "nonpayable",
      "type": "constructor"
    },
    {
      "anonymous": false,
      "inputs": [
        {
          "indexed": true,
          "internalType": "address",
          "name": "from",
          "type": "address"
        },
        {
          "indexed": true,
          "internalType": "address",
          "name": "to",
          "type": "address"
        },
        {
          "indexed": true,
          "internalType": "address",
          "name": "token",
          "type": "address"
        },
        {
          "indexed": false,
          "internalType": "uint256",
          "name": "amount",
          "type": "uint256"
        },
        {
          "indexed": false,
          "internalType": "uint256",
          "name": "nonce",
          "type": "uint256"
        }
      ],
      "name": "PaymentExecuted",
      "type": "event"
    },
    {
      "inputs": [],
      "name": "DOMAIN_SEPARATOR",
      "outputs": [
        {
          "internalType": "bytes32",
          "name": "",
          "type": "bytes32"
        }
      ],
      "stateMutability": "view",
      "type": "function"
    },
    {
      "inputs": [],
      "name": "TRANSFER_TYPEHASH",
      "outputs": [
        {
          "internalType": "bytes32",
          "name": "",
          "type": "bytes32"
        }
      ],
      "stateMutability": "view",
      "type": "function"
    },
    {
      "inputs": [
        {
          "internalType": "address",
          "name": "token",
          "type": "address"
        },
        {
          "internalType": "address",
          "name": "from",
          "type": "address"
        },
        {
          "internalType": "address",
          "name": "to",
          "type": "address"
        },
        {
          "internalType": "uint256",
          "name": "amount",
          "type": "uint256"
        },
        {
          "internalType": "uint256",
          "name": "deadline",
          "type": "uint256"
        },
        {
          "internalType": "uint8",
          "name": "v",
          "type": "uint8"
        },
        {
          "internalType": "bytes32",
          "name": "r",
          "type": "bytes32"
        },
        {
          "internalType": "bytes32",
          "name": "s",
          "type": "bytes32"
        }
      ],
      "name": "gaslessTransfer",
      "outputs": [],
      "stateMutability": "nonpayable",
      "type": "function"
    },
    {
      "inputs": [
        {
          "internalType": "address",
          "name": "",
          "type": "address"
        }
      ],
      "name": "nonces",
      "outputs": [
        {
          "internalType": "uint256",
          "name": "",
          "type": "uint256"
        }
      ],
      "stateMutability": "view",
      "type": "function"
    }
  ],
  "bytecode": "0x60a060405234801561001057600080fd5b50604080518082018252600d81526c2830bcb6b2b73a2937baba32b960991b6020918201528151808301835260018152603160f81b9082015281517f8b73c3c69bb8fe3d512ecc4cf759cc79239f7b179b0ffacaa9a75d522b39400f818301527fc3ba131e502655abfdd84a69c413694b6e9d20554cd9b45683159b8ed7bccd7b818401527fc89efdaa54c0f20c7adf612882df0950f5a951637e0307cdcb4c672f298b8bc66060820152466080808301919091523060a0808401919091528451808403909101815260c090920190935280519101209081905261076e61010860003960008181608e01526101ce015261076e6000f3fe608060405234801561001057600080fd5b506004361061004b5760003560e01c8062bf26f4146100505780633644e515146100895780636c01d4d3146100b05780637ecebe00146100c5575b600080fd5b6100777fa3ef66f43e0318221d5ef949dc8638f6c3c9f5a1c2d847bd3b838d033a6ac60581565b60405190815260200160405180910390f35b6100777f000000000000000000000000000000000000000000000000000000000000000081565b6100c36100be366004610634565b6100e5565b005b6100776100d33660046106b7565b60006020819052908152604090205481565b8342111561013a5760405162461bcd60e51b815260206004820152601d60248201527f5061796d656e7420617574686f72697a6174696f6e206578706972656400000060448201526064015b60405180910390fd5b6001600160a01b038781166000818152602081815260408083205481517fa3ef66f43e0318221d5ef949dc8638f6c3c9f5a1c2d847bd3b838d033a6ac605818501528e8716818401526060810195909552948b16608085015260a084018a905260c0840185905260e08085018a9052815180860390910181526101008501825280519083012061190160f01b6101208601527f0000000000000000000000000000000000000000000000000000000000000000610122860152610142808601829052825180870390910181526101629095019091528351939091019290922090610226828888886103df565b90508a6001600160a01b0316816001600160a01b031614801561025157506001600160a01b03811615155b6102915760405162461bcd60e51b8152602060048201526011602482015270496e76616c6964207369676e617475726560781b6044820152606401610131565b61029c8460016106d9565b6001600160a01b038c8116600081815260208190526040908190209390935591516323b872dd60e01b815260048101929092528b81166024830152604482018b90528d16906323b872dd906064016020604051808303816000875af1158015610309573d6000803e3d6000fd5b505050506040513d601f19601f8201168201806040525081019061032d9190610700565b6103715760405162461bcd60e51b8152602060048201526015602482015274151bdad95b881d1c985b9cd9995c8819985a5b1959605a1b6044820152606401610131565b8b6001600160a01b03168a6001600160a01b03168c6001600160a01b03167fe23ea0e3e1b90c97b23b53fda1c16d85b1d81164966358b9937b78a6f2d052fc8c886040516103c9929190918252602082015260400190565b60405180910390a4505050505050505050505050565b60008060006103f087878787610407565b915091506103fd816104cb565b5095945050505050565b6000807f7fffffffffffffffffffffffffffffff5d576e7357a4501ddfe92f46681b20a083111561043e57506000905060036104c2565b6040805160008082526020820180845289905260ff881692820192909252606081018690526080810185905260019060a0016020604051602081039080840390855afa158015610492573d6000803e3d6000fd5b5050604051601f1901519150506001600160a01b0381166104bb576000600192509250506104c2565b9150600090505b94509492505050565b60008160048111156104df576104df610722565b036104e75750565b60018160048111156104fb576104fb610722565b036105485760405162461bcd60e51b815260206004820152601860248201527f45434453413a20696e76616c6964207369676e617475726500000000000000006044820152606401610131565b600281600481111561055c5761055c610722565b036105a95760405162461bcd60e51b815260206004820152601f60248201527f45434453413a20696e76616c6964207369676e6174757265206c656e677468006044820152606401610131565b60038160048111156105bd576105bd610722565b036106155760405162461bcd60e51b815260206004820152602260248201527f45434453413a20696e76616c6964207369676e6174757265202773272076616c604482015261756560f01b6064820152608401610131565b50565b80356001600160a01b038116811461062f57600080fd5b919050565b600080600080600080600080610100898b03121561065157600080fd5b61065a89610618565b975061066860208a01610618565b965061067660408a01610618565b9550606089013594506080890135935060a089013560ff8116811461069a57600080fd5b979a969950949793969295929450505060c08201359160e0013590565b6000602082840312156106c957600080fd5b6106d282610618565b9392505050565b808201808211156106fa57634e487b7160e01b600052601160045260246000fd5b92915050565b60006020828403121561071257600080fd5b815180151581146106d257600080fd5b634e487b7160e01b600052602160045260246000fdfea264697066735822122083cf8a4c1d94f4a2e63c9fcabca1b59ac3cb2426d5ee1eb5169289c92a6ac08f64736f6c63430008170033",
  "linkReferences": {},
  "deployedLinkReferences": {}
}