{
  "_format": "hh-sol-artifact-1",
  "contractName": "MerchantNFTRouter",
  "sourceName": "contracts/plasma/MerchantNFTRouter.sol",
  "abi": [
    {
      "inputs": [
        {
          "internalType": "address",
          "name": "_token",
          "type": "address"
        },
        {
          "internalType": "address",
          "name": "_nft",
          "type": "address"
        },
        {
          "internalType": "address",
          "name": "_treasury",
          "type": "address"
        },
        {
          "internalType": "uint256",
          "name": "_price",
          "type": "uint256"
        }
      ],
      "stateMutability": "nonpayable",
      "type": "constructor"
    },
    {
      "anonymous": false,
      "inputs": [
        {
          "indexed": true,
          "internalType": "address",
          "name": "previousOwner",
          "type": "address"
        },
        {
          "indexed": true,
          "internalType": "address",
          "name": "newOwner",
          "type": "address"
        }
      ],
      "name": "OwnershipTransferred",
      "type": "event"
    },
    {
      "anonymous": false,
      "inputs": [
        {
          "indexed": true,
          "internalType": "address",
          "name": "payer",
          "type": "address"
        },
        {
          "indexed": true,
          "internalType": "address",
          "name": "toNFT",
          "type": "address"
        },
        {
          "indexed": false,
          "internalType": "uint256",
          "name": "value",
          "type": "uint256"
        }
      ],
      "name": "PaidAndMinted",
      "type": "event"
    },
    {
      "inputs": [],
      "name": "nft",
      "outputs": [
        {
          "internalType": "address",
          "name": "",
          "type": "address"
        }
      ],
      "stateMutability": "view",
      "type": "function"
    },
    {
      "inputs": [],
      "name": "owner",
      "outputs": [
        {
          "internalType": "address",
          "name": "",
          "type": "address"
        }
      ],
      "stateMutability": "view",
      "type": "function"
    },
    {
      "inputs": [
        {
          "internalType": "address",
          "name": "from",
          "type": "address"
        },
        {
          "internalType": "address",
          "name": "toNFT",
          "type": "address"
        },
        {
          "internalType": "uint256",
          "name": "value",
          "type": "uint256"
        },
        {
          "internalType": "uint256",
          "name": "validAfter",
          "type": "uint256"
        },
        {
          "internalType": "uint256",
          "name": "validBefore",
          "type": "uint256"
        },
        {
          "internalType": "bytes32",
          "name": "nonce",
          "type": "bytes32"
        },
        {
          "internalType": "bytes",
          "name": "signature",
          "type": "bytes"
        }
      ],
      "name": "payAndMintReceiveAuth",
      "outputs": [],
      "stateMutability": "nonpayable",
      "type": "function"
    },
    {
      "inputs": [
        {
          "internalType": "address",
          "name": "from",
          "type": "address"
        },
        {
          "internalType": "address",
          "name": "toNFT",
          "type": "address"
        },
        {
          "internalType": "uint256",
          "name": "value",
          "type": "uint256"
        },
        {
          "internalType": "uint256",
          "name": "validAfter",
          "type": "uint256"
        },
        {
          "internalType": "uint256",
          "name": "validBefore",
          "type": "uint256"
        },
        {
          "internalType": "bytes32",
          "name": "nonce",
          "type": "bytes32"
        },
        {
          "internalType": "uint8",
          "name": "v",
          "type": "uint8"
        },
        {
          "internalType": "bytes32",
          "name": "r",
          "type": "bytes32"
        },
        {
          "internalType": "bytes32",
          "name": "s",
          "type": "bytes32"
        }
      ],
      "name": "payAndMintVRS",
      "outputs": [],
      "stateMutability": "nonpayable",
      "type": "function"
    },
    {
      "inputs": [],
      "name": "price",
      "outputs": [
        {
          "internalType": "uint256",
          "name": "",
          "type": "uint256"
        }
      ],
      "stateMutability": "view",
      "type": "function"
    },
    {
      "inputs": [],
      "name": "renounceOwnership",
      "outputs": [],
      "stateMutability": "nonpayable",
      "type": "function"
    },
    {
      "inputs": [],
      "name": "token",
      "outputs": [
        {
          "internalType": "address",
          "name": "",
          "type": "address"
        }
      ],
      "stateMutability": "view",
      "type": "function"
    },
    {
      "inputs": [
        {
          "internalType": "address",
          "name": "newOwner",
          "type": "address"
        }
      ],
      "name": "transferOwnership",
      "outputs": [],
      "stateMutability": "nonpayable",
      "type": "function"
    },
    {
      "inputs": [],
      "name": "treasury",
      "outputs": [
        {
          "internalType": "address",
          "name": "",
          "type": "address"
        }
      ],
      "stateMutability": "view",
      "type": "function"
    }
  ],
  "bytecode": "0x61010060405234801561001157600080fd5b50604051610c51380380610c5183398101604081905261003091610172565b61003933610106565b6001600160a01b0384161580159061005957506001600160a01b03831615155b801561006d57506001600160a01b03821615155b6100aa5760405162461bcd60e51b81526020600482015260096024820152683d32b9379030b2323960b91b60448201526064015b60405180910390fd5b600081116100e45760405162461bcd60e51b8152602060048201526007602482015266070726963653d360cc1b60448201526064016100a1565b6001600160a01b0393841660805291831660a05290911660c05260e0526101bd565b600080546001600160a01b038381166001600160a01b0319831681178455604051919092169283917f8be0079c531659141344cd1fd0a4f28419497f9722a3daafe3b4186f6b6457e09190a35050565b80516001600160a01b038116811461016d57600080fd5b919050565b6000806000806080858703121561018857600080fd5b61019185610156565b935061019f60208601610156565b92506101ad60408601610156565b6060959095015193969295505050565b60805160a05160c05160e051610a1e61023360003960008181610123015281816101c901526103e801526000818160e10152818161024801526104e4015260008181609d0152818161031e01526105dd015260008181610191015281816102a40152818161045a01526105130152610a1e6000f3fe608060405234801561001057600080fd5b50600436106100935760003560e01c8063a035b1fe11610066578063a035b1fe1461011e578063b74f134c14610153578063bcf3a12c14610166578063f2fde38b14610179578063fc0c546a1461018c57600080fd5b806347ccca021461009857806361d027b3146100dc578063715018a6146101035780638da5cb5b1461010d575b600080fd5b6100bf7f000000000000000000000000000000000000000000000000000000000000000081565b6040516001600160a01b0390911681526020015b60405180910390f35b6100bf7f000000000000000000000000000000000000000000000000000000000000000081565b61010b6101b3565b005b6000546001600160a01b03166100bf565b6101457f000000000000000000000000000000000000000000000000000000000000000081565b6040519081526020016100d3565b61010b6101613660046107e1565b6101c7565b61010b610174366004610869565b6103e6565b61010b610187366004610923565b6106a2565b6100bf7f000000000000000000000000000000000000000000000000000000000000000081565b6101bb61071b565b6101c56000610775565b565b7f000000000000000000000000000000000000000000000000000000000000000087146102295760405162461bcd60e51b815260206004820152600b60248201526a77726f6e6720707269636560a81b60448201526064015b60405180910390fd5b6040516371f70b0760e11b81526001600160a01b038a811660048301527f00000000000000000000000000000000000000000000000000000000000000008116602483015260448201899052606482018890526084820187905260a4820186905260ff851660c483015260e4820184905261010482018390527f0000000000000000000000000000000000000000000000000000000000000000169063e3ee160e9061012401600060405180830381600087803b1580156102e957600080fd5b505af11580156102fd573d6000803e3d6000fd5b50506040516340d097c360e01b81526001600160a01b038b811660048301527f00000000000000000000000000000000000000000000000000000000000000001692506340d097c391506024016020604051808303816000875af1158015610369573d6000803e3d6000fd5b505050506040513d601f19601f8201168201806040525081019061038d9190610945565b50876001600160a01b0316896001600160a01b03167fc1e2f543f68924456d0fa75ffc2b9cc572fe93a9f02175f6bb1dde88471a6979896040516103d391815260200190565b60405180910390a3505050505050505050565b7f000000000000000000000000000000000000000000000000000000000000000086146104435760405162461bcd60e51b815260206004820152600b60248201526a77726f6e6720707269636560a81b6044820152606401610220565b6040516388b7ab6360e01b81526001600160a01b037f000000000000000000000000000000000000000000000000000000000000000016906388b7ab639061049d908b9030908b908b908b908b908b908b9060040161095e565b600060405180830381600087803b1580156104b757600080fd5b505af11580156104cb573d6000803e3d6000fd5b505060405163a9059cbb60e01b81526001600160a01b037f000000000000000000000000000000000000000000000000000000000000000081166004830152602482018a90527f000000000000000000000000000000000000000000000000000000000000000016925063a9059cbb91506044016020604051808303816000875af115801561055e573d6000803e3d6000fd5b505050506040513d601f19601f8201168201806040525081019061058291906109c6565b6105be5760405162461bcd60e51b815260206004820152600d60248201526c1d1c985b9cd9995c8819985a5b609a1b6044820152606401610220565b6040516340d097c360e01b81526001600160a01b0388811660048301527f000000000000000000000000000000000000000000000000000000000000000016906340d097c3906024016020604051808303816000875af1158015610626573d6000803e3d6000fd5b505050506040513d601f19601f8201168201806040525081019061064a9190610945565b50866001600160a01b0316886001600160a01b03167fc1e2f543f68924456d0fa75ffc2b9cc572fe93a9f02175f6bb1dde88471a69798860405161069091815260200190565b60405180910390a35050505050505050565b6106aa61071b565b6001600160a01b03811661070f5760405162461bcd60e51b815260206004820152602660248201527f4f776e61626c653a206e6577206f776e657220697320746865207a65726f206160448201526564647265737360d01b6064820152608401610220565b61071881610775565b50565b6000546001600160a01b031633146101c55760405162461bcd60e51b815260206004820181905260248201527f4f776e61626c653a2063616c6c6572206973206e6f7420746865206f776e65726044820152606401610220565b600080546001600160a01b038381166001600160a01b0319831681178455604051919092169283917f8be0079c531659141344cd1fd0a4f28419497f9722a3daafe3b4186f6b6457e09190a35050565b80356001600160a01b03811681146107dc57600080fd5b919050565b60008060008060008060008060006101208a8c03121561080057600080fd5b6108098a6107c5565b985061081760208b016107c5565b975060408a0135965060608a0135955060808a0135945060a08a0135935060c08a013560ff8116811461084957600080fd5b8093505060e08a013591506101008a013590509295985092959850929598565b60008060008060008060008060e0898b03121561088557600080fd5b61088e896107c5565b975061089c60208a016107c5565b965060408901359550606089013594506080890135935060a0890135925060c089013567ffffffffffffffff808211156108d557600080fd5b818b0191508b601f8301126108e957600080fd5b8135818111156108f857600080fd5b8c602082850101111561090a57600080fd5b6020830194508093505050509295985092959890939650565b60006020828403121561093557600080fd5b61093e826107c5565b9392505050565b60006020828403121561095757600080fd5b5051919050565b600060018060a01b03808b168352808a166020840152508760408301528660608301528560808301528460a083015260e060c08301528260e08301526101008385828501376000838501820152601f909301601f191690910190910198975050505050505050565b6000602082840312156109d857600080fd5b8151801515811461093e57600080fdfea2646970667358221220bb5d4b6d6f6ae1a7c487f12287645035795ac09af2a9506f031c170cabfced3864736f6c63430008170033",
  "linkReferences": {},
  "deployedLinkReferences": {}
}