{
  "_format": "hh-sol-artifact-1",
  "contractName": "PlasmaReceipt721",
  "sourceName": "contracts/plasma/PlasmaReceipt721.sol",
  "abi": [
    {
      "inputs": [],
      "stateMutability": "nonpayable",
      "type": "constructor"
    },
    {
      "anonymous": false,
      "inputs": [
        {
          "indexed": true,
          "internalType": "address",
          "name": "owner",
          "type": "address"
        },
        {
          "indexed": true,
          "internalType": "address",
          "name": "approved",
          "type": "address"
        },
        {
          "indexed": true,
          "internalType": "uint256",
          "name": "tokenId",
          "type": "uint256"
        }
      ],
      "name": "Approval",
      "type": "event"
    },
    {
      "anonymous": false,
      "inputs": [
        {
          "indexed": true,
          "internalType": "address",
          "name": "owner",
          "type": "address"
        },
        {
          "indexed": true,
          "internalType": "address",
          "name": "operator",
          "type": "address"
        },
        {
          "indexed": false,
          "internalType": "bool",
          "name": "approved",
          "type": "bool"
        }
      ],
      "name": "ApprovalForAll",
      "type": "event"
    },
    {
      "anonymous": false,
      "inputs": [
        {
          "indexed": true,
          "internalType": "address",
          "name": "to",
          "type": "address"
        },
        {
          "indexed": true,
          "internalType": "uint256",
          "name": "tokenId",
          "type": "uint256"
        }
      ],
      "name": "Minted",
      "type": "event"
    },
    {
      "anonymous": false,
      "inputs": [
        {
          "indexed": true,
          "internalType": "address",
          "name": "oldMinter",
          "type": "address"
        },
        {
          "indexed": true,
          "internalType": "address",
          "name": "newMinter",
          "type": "address"
        }
      ],
      "name": "MinterUpdated",
      "type": "event"
    },
    {
      "anonymous": false,
      "inputs": [
        {
          "indexed": true,
          "internalType": "address",
          "name": "previousOwner",
          "type": "address"
        },
        {
          "indexed": true,
          "internalType": "address",
          "name": "newOwner",
          "type": "address"
        }
      ],
      "name": "OwnershipTransferred",
      "type": "event"
    },
    {
      "anonymous": false,
      "inputs": [
        {
          "indexed": true,
          "internalType": "address",
          "name": "from",
          "type": "address"
        },
        {
          "indexed": true,
          "internalType": "address",
          "name": "to",
          "type": "address"
        },
        {
          "indexed": true,
          "internalType": "uint256",
          "name": "tokenId",
          "type": "uint256"
        }
      ],
      "name": "Transfer",
      "type": "event"
    },
    {
      "inputs": [
        {
          "internalType": "address",
          "name": "to",
          "type": "address"
        },
        {
          "internalType": "uint256",
          "name": "tokenId",
          "type": "uint256"
        }
      ],
      "name": "approve",
      "outputs": [],
      "stateMutability": "nonpayable",
      "type": "function"
    },
    {
      "inputs": [
        {
          "internalType": "address",
          "name": "owner",
          "type": "address"
        }
      ],
      "name": "balanceOf",
      "outputs": [
        {
          "internalType": "uint256",
          "name": "",
          "type": "uint256"
        }
      ],
      "stateMutability": "view",
      "type": "function"
    },
    {
      "inputs": [
        {
          "internalType": "uint256",
          "name": "tokenId",
          "type": "uint256"
        }
      ],
      "name": "getApproved",
      "outputs": [
        {
          "internalType": "address",
          "name": "",
          "type": "address"
        }
      ],
      "stateMutability": "view",
      "type": "function"
    },
    {
      "inputs": [
        {
          "internalType": "address",
          "name": "owner",
          "type": "address"
        },
        {
          "internalType": "address",
          "name": "operator",
          "type": "address"
        }
      ],
      "name": "isApprovedForAll",
      "outputs": [
        {
          "internalType": "bool",
          "name": "",
          "type": "bool"
        }
      ],
      "stateMutability": "view",
      "type": "function"
    },
    {
      "inputs": [],
      "name": "minter",
      "outputs": [
        {
          "internalType": "address",
          "name": "",
          "type": "address"
        }
      ],
      "stateMutability": "view",
      "type": "function"
    },
    {
      "inputs": [],
      "name": "name",
      "outputs": [
        {
          "internalType": "string",
          "name": "",
          "type": "string"
        }
      ],
      "stateMutability": "view",
      "type": "function"
    },
    {
      "inputs": [],
      "name": "nextTokenId",
      "outputs": [
        {
          "internalType": "uint256",
          "name": "",
          "type": "uint256"
        }
      ],
      "stateMutability": "view",
      "type": "function"
    },
    {
      "inputs": [],
      "name": "owner",
      "outputs": [
        {
          "internalType": "address",
          "name": "",
          "type": "address"
        }
      ],
      "stateMutability": "view",
      "type": "function"
    },
    {
      "inputs": [
        {
          "internalType": "uint256",
          "name": "tokenId",
          "type": "uint256"
        }
      ],
      "name": "ownerOf",
      "outputs": [
        {
          "internalType": "address",
          "name": "",
          "type": "address"
        }
      ],
      "stateMutability": "view",
      "type": "function"
    },
    {
      "inputs": [],
      "name": "renounceOwnership",
      "outputs": [],
      "stateMutability": "nonpayable",
      "type": "function"
    },
    {
      "inputs": [
        {
          "internalType": "address",
          "name": "to",
          "type": "address"
        }
      ],
      "name": "safeMint",
      "outputs": [
        {
          "internalType": "uint256",
          "name": "tokenId",
          "type": "uint256"
        }
      ],
      "stateMutability": "nonpayable",
      "type": "function"
    },
    {
      "inputs": [
        {
          "internalType": "address",
          "name": "from",
          "type": "address"
        },
        {
          "internalType": "address",
          "name": "to",
          "type": "address"
        },
        {
          "internalType": "uint256",
          "name": "tokenId",
          "type": "uint256"
        }
      ],
      "name": "safeTransferFrom",
      "outputs": [],
      "stateMutability": "nonpayable",
      "type": "function"
    },
    {
      "inputs": [
        {
          "internalType": "address",
          "name": "from",
          "type": "address"
        },
        {
          "internalType": "address",
          "name": "to",
          "type": "address"
        },
        {
          "internalType": "uint256",
          "name": "tokenId",
          "type": "uint256"
        },
        {
          "internalType": "bytes",
          "name": "data",
          "type": "bytes"
        }
      ],
      "name": "safeTransferFrom",
      "outputs": [],
      "stateMutability": "nonpayable",
      "type": "function"
    },
    {
      "inputs": [
        {
          "internalType": "address",
          "name": "operator",
          "type": "address"
        },
        {
          "internalType": "bool",
          "name": "approved",
          "type": "bool"
        }
      ],
      "name": "setApprovalForAll",
      "outputs": [],
      "stateMutability": "nonpayable",
      "type": "function"
    },
    {
      "inputs": [
        {
          "internalType": "address",
          "name": "newMinter",
          "type": "address"
        }
      ],
      "name": "setMinter",
      "outputs": [],
      "stateMutability": "nonpayable",
      "type": "function"
    },
    {
      "inputs": [
        {
          "internalType": "bytes4",
          "name": "interfaceId",
          "type": "bytes4"
        }
      ],
      "name": "supportsInterface",
      "outputs": [
        {
          "internalType": "bool",
          "name": "",
          "type": "bool"
        }
      ],
      "stateMutability": "view",
      "type": "function"
    },
    {
      "inputs": [],
      "name": "symbol",
      "outputs": [
        {
          "internalType": "string",
          "name": "",
          "type": "string"
        }
      ],
      "stateMutability": "view",
      "type": "function"
    },
    {
      "inputs": [
        {
          "internalType": "uint256",
          "name": "",
          "type": "uint256"
        }
      ],
      "name": "tokenURI",
      "outputs": [
        {
          "internalType": "string",
          "name": "",
          "type": "string"
        }
      ],
      "stateMutability": "pure",
      "type": "function"
    },
    {
      "inputs": [
        {
          "internalType": "address",
          "name": "from",
          "type": "address"
        },
        {
          "internalType": "address",
          "name": "to",
          "type": "address"
        },
        {
          "internalType": "uint256",
          "name": "tokenId",
          "type": "uint256"
        }
      ],
      "name": "transferFrom",
      "outputs": [],
      "stateMutability": "nonpayable",
      "type": "function"
    },
    {
      "inputs": [
        {
          "internalType": "address",
          "name": "newOwner",
          "type": "address"
        }
      ],
      "name": "transferOwnership",
      "outputs": [],
      "stateMutability": "nonpayable",
      "type": "function"
    }
  ],
  "bytecode": "0x608060405260016008553480156200001657600080fd5b506040518060400160405280600e81526020016d14db5a5b195e48149958d95a5c1d60921b81525060405180604001604052806005815260200164534d494c4560d81b81525081600090816200006d91906200019c565b5060016200007c82826200019c565b50505062000099620000936200009f60201b60201c565b620000a3565b62000268565b3390565b600680546001600160a01b038381166001600160a01b0319831681179093556040519116919082907f8be0079c531659141344cd1fd0a4f28419497f9722a3daafe3b4186f6b6457e090600090a35050565b634e487b7160e01b600052604160045260246000fd5b600181811c908216806200012057607f821691505b6020821081036200014157634e487b7160e01b600052602260045260246000fd5b50919050565b601f82111562000197576000816000526020600020601f850160051c81016020861015620001725750805b601f850160051c820191505b8181101562000193578281556001016200017e565b5050505b505050565b81516001600160401b03811115620001b857620001b8620000f5565b620001d081620001c984546200010b565b8462000147565b602080601f831160018114620002085760008415620001ef5750858301515b600019600386901b1c1916600185901b17855562000193565b600085815260208120601f198616915b82811015620002395788860151825594840194600190910190840162000218565b5085821015620002585787850151600019600388901b60f8161c191681555b5050505050600190811b01905550565b6115d480620002786000396000f3fe608060405234801561001057600080fd5b506004361061012c5760003560e01c8063715018a6116100ad578063b88d4fde11610071578063b88d4fde1461026b578063c87b56dd1461027e578063e985e9c514610291578063f2fde38b146102cd578063fca3b5aa146102e057600080fd5b8063715018a61461022e57806375794a3c146102365780638da5cb5b1461023f57806395d89b4114610250578063a22cb4651461025857600080fd5b806323b872dd116100f457806323b872dd146101c157806340d097c3146101d457806342842e0e146101f55780636352211e1461020857806370a082311461021b57600080fd5b806301ffc9a71461013157806306fdde0314610159578063075461721461016e578063081812fc14610199578063095ea7b3146101ac575b600080fd5b61014461013f36600461100a565b6102f3565b60405190151581526020015b60405180910390f35b610161610345565b604051610150919061107e565b600754610181906001600160a01b031681565b6040516001600160a01b039091168152602001610150565b6101816101a7366004611091565b6103d7565b6101bf6101ba3660046110c6565b6103fe565b005b6101bf6101cf3660046110f0565b610518565b6101e76101e236600461112c565b610549565b604051908152602001610150565b6101bf6102033660046110f0565b6105ef565b610181610216366004611091565b61060a565b6101e761022936600461112c565b61066a565b6101bf6106f0565b6101e760085481565b6006546001600160a01b0316610181565b610161610704565b6101bf610266366004611147565b610713565b6101bf610279366004611199565b610722565b61016161028c366004611091565b61075a565b61014461029f366004611275565b6001600160a01b03918216600090815260056020908152604080832093909416825291909152205460ff1690565b6101bf6102db36600461112c565b6107e1565b6101bf6102ee36600461112c565b61085a565b60006001600160e01b031982166380ac58cd60e01b148061032457506001600160e01b03198216635b5e139f60e01b145b8061033f57506301ffc9a760e01b6001600160e01b03198316145b92915050565b606060008054610354906112a8565b80601f0160208091040260200160405190810160405280929190818152602001828054610380906112a8565b80156103cd5780601f106103a2576101008083540402835291602001916103cd565b820191906000526020600020905b8154815290600101906020018083116103b057829003601f168201915b5050505050905090565b60006103e2826108be565b506000908152600460205260409020546001600160a01b031690565b60006104098261060a565b9050806001600160a01b0316836001600160a01b03160361047b5760405162461bcd60e51b815260206004820152602160248201527f4552433732313a20617070726f76616c20746f2063757272656e74206f776e656044820152603960f91b60648201526084015b60405180910390fd5b336001600160a01b03821614806104975750610497813361029f565b6105095760405162461bcd60e51b815260206004820152603d60248201527f4552433732313a20617070726f76652063616c6c6572206973206e6f7420746f60448201527f6b656e206f776e6572206f7220617070726f76656420666f7220616c6c0000006064820152608401610472565b610513838361091d565b505050565b610522338261098b565b61053e5760405162461bcd60e51b8152600401610472906112e2565b610513838383610a0a565b6007546000906001600160a01b031633146105945760405162461bcd60e51b815260206004820152600b60248201526a27b7363c9036b4b73a32b960a91b6044820152606401610472565b600880549060006105a48361132f565b9190505590506105b48282610b6e565b60405181906001600160a01b038416907f30385c845b448a36257a6a1716e6ad2e1bc2cbe333cde1e69fe849ad6511adfe90600090a3919050565b61051383838360405180602001604052806000815250610722565b6000818152600260205260408120546001600160a01b03168061033f5760405162461bcd60e51b8152602060048201526018602482015277115490cdcc8c4e881a5b9d985b1a59081d1bdad95b88125160421b6044820152606401610472565b60006001600160a01b0382166106d45760405162461bcd60e51b815260206004820152602960248201527f4552433732313a2061646472657373207a65726f206973206e6f7420612076616044820152683634b21037bbb732b960b91b6064820152608401610472565b506001600160a01b031660009081526003602052604090205490565b6106f8610b88565b6107026000610be2565b565b606060018054610354906112a8565b61071e338383610c34565b5050565b61072c338361098b565b6107485760405162461bcd60e51b8152600401610472906112e2565b61075484848484610d02565b50505050565b6060600060405180610160016040528061012881526020016114776101289139905060006040518060400160405280601881526020017f646174613a696d6167652f7376672b786d6c3b757466382c0000000000000000815250905080826040516020016107c9929190611356565b60405160208183030381529060405292505050919050565b6107e9610b88565b6001600160a01b03811661084e5760405162461bcd60e51b815260206004820152602660248201527f4f776e61626c653a206e6577206f776e657220697320746865207a65726f206160448201526564647265737360d01b6064820152608401610472565b61085781610be2565b50565b610862610b88565b6007546040516001600160a01b038084169216907f1cf2de25c5bf439ac0287061c3a0fa69b3b02867d0ccfd2ded34e42577050b7390600090a3600780546001600160a01b0319166001600160a01b0392909216919091179055565b6000818152600260205260409020546001600160a01b03166108575760405162461bcd60e51b8152602060048201526018602482015277115490cdcc8c4e881a5b9d985b1a59081d1bdad95b88125160421b6044820152606401610472565b600081815260046020526040902080546001600160a01b0319166001600160a01b03841690811790915581906109528261060a565b6001600160a01b03167f8c5be1e5ebec7d5bd14f71427d1e84f3dd0314c0f7b2291e5b200ac8c7c3b92560405160405180910390a45050565b6000806109978361060a565b9050806001600160a01b0316846001600160a01b031614806109de57506001600160a01b0380821660009081526005602090815260408083209388168352929052205460ff165b80610a025750836001600160a01b03166109f7846103d7565b6001600160a01b0316145b949350505050565b826001600160a01b0316610a1d8261060a565b6001600160a01b031614610a435760405162461bcd60e51b815260040161047290611385565b6001600160a01b038216610aa55760405162461bcd60e51b8152602060048201526024808201527f4552433732313a207472616e7366657220746f20746865207a65726f206164646044820152637265737360e01b6064820152608401610472565b826001600160a01b0316610ab88261060a565b6001600160a01b031614610ade5760405162461bcd60e51b815260040161047290611385565b600081815260046020908152604080832080546001600160a01b03199081169091556001600160a01b0387811680865260038552838620805460001901905590871680865283862080546001019055868652600290945282852080549092168417909155905184937fddf252ad1be2c89b69c2b068fc378daa952ba7f163c4a11628f55a4df523b3ef91a4505050565b61071e828260405180602001604052806000815250610d35565b6006546001600160a01b031633146107025760405162461bcd60e51b815260206004820181905260248201527f4f776e61626c653a2063616c6c6572206973206e6f7420746865206f776e65726044820152606401610472565b600680546001600160a01b038381166001600160a01b0319831681179093556040519116919082907f8be0079c531659141344cd1fd0a4f28419497f9722a3daafe3b4186f6b6457e090600090a35050565b816001600160a01b0316836001600160a01b031603610c955760405162461bcd60e51b815260206004820152601960248201527f4552433732313a20617070726f766520746f2063616c6c6572000000000000006044820152606401610472565b6001600160a01b03838116600081815260056020908152604080832094871680845294825291829020805460ff191686151590811790915591519182527f17307eab39ab6107e8899845ad3d59bd9653f200f220920489ca2b5937696c31910160405180910390a3505050565b610d0d848484610a0a565b610d1984848484610d68565b6107545760405162461bcd60e51b8152600401610472906113ca565b610d3f8383610e69565b610d4c6000848484610d68565b6105135760405162461bcd60e51b8152600401610472906113ca565b60006001600160a01b0384163b15610e5e57604051630a85bd0160e11b81526001600160a01b0385169063150b7a0290610dac90339089908890889060040161141c565b6020604051808303816000875af1925050508015610de7575060408051601f3d908101601f19168201909252610de491810190611459565b60015b610e44573d808015610e15576040519150601f19603f3d011682016040523d82523d6000602084013e610e1a565b606091505b508051600003610e3c5760405162461bcd60e51b8152600401610472906113ca565b805181602001fd5b6001600160e01b031916630a85bd0160e11b149050610a02565b506001949350505050565b6001600160a01b038216610ebf5760405162461bcd60e51b815260206004820181905260248201527f4552433732313a206d696e7420746f20746865207a65726f20616464726573736044820152606401610472565b6000818152600260205260409020546001600160a01b031615610f245760405162461bcd60e51b815260206004820152601c60248201527f4552433732313a20746f6b656e20616c7265616479206d696e746564000000006044820152606401610472565b6000818152600260205260409020546001600160a01b031615610f895760405162461bcd60e51b815260206004820152601c60248201527f4552433732313a20746f6b656e20616c7265616479206d696e746564000000006044820152606401610472565b6001600160a01b038216600081815260036020908152604080832080546001019055848352600290915280822080546001600160a01b0319168417905551839291907fddf252ad1be2c89b69c2b068fc378daa952ba7f163c4a11628f55a4df523b3ef908290a45050565b6001600160e01b03198116811461085757600080fd5b60006020828403121561101c57600080fd5b813561102781610ff4565b9392505050565b60005b83811015611049578181015183820152602001611031565b50506000910152565b6000815180845261106a81602086016020860161102e565b601f01601f19169290920160200192915050565b6020815260006110276020830184611052565b6000602082840312156110a357600080fd5b5035919050565b80356001600160a01b03811681146110c157600080fd5b919050565b600080604083850312156110d957600080fd5b6110e2836110aa565b946020939093013593505050565b60008060006060848603121561110557600080fd5b61110e846110aa565b925061111c602085016110aa565b9150604084013590509250925092565b60006020828403121561113e57600080fd5b611027826110aa565b6000806040838503121561115a57600080fd5b611163836110aa565b91506020830135801515811461117857600080fd5b809150509250929050565b634e487b7160e01b600052604160045260246000fd5b600080600080608085870312156111af57600080fd5b6111b8856110aa565b93506111c6602086016110aa565b925060408501359150606085013567ffffffffffffffff808211156111ea57600080fd5b818701915087601f8301126111fe57600080fd5b81358181111561121057611210611183565b604051601f8201601f19908116603f0116810190838211818310171561123857611238611183565b816040528281528a602084870101111561125157600080fd5b82602086016020830137600060208483010152809550505050505092959194509250565b6000806040838503121561128857600080fd5b611291836110aa565b915061129f602084016110aa565b90509250929050565b600181811c908216806112bc57607f821691505b6020821081036112dc57634e487b7160e01b600052602260045260246000fd5b50919050565b6020808252602d908201527f4552433732313a2063616c6c6572206973206e6f7420746f6b656e206f776e6560408201526c1c881bdc88185c1c1c9bdd9959609a1b606082015260800190565b60006001820161134f57634e487b7160e01b600052601160045260246000fd5b5060010190565b6000835161136881846020880161102e565b83519083019061137c81836020880161102e565b01949350505050565b60208082526025908201527f4552433732313a207472616e736665722066726f6d20696e636f72726563742060408201526437bbb732b960d91b606082015260800190565b60208082526032908201527f4552433732313a207472616e7366657220746f206e6f6e20455243373231526560408201527131b2b4bb32b91034b6b83632b6b2b73a32b960711b606082015260800190565b6001600160a01b038581168252841660208201526040810183905260806060820181905260009061144f90830184611052565b9695505050505050565b60006020828403121561146b57600080fd5b815161102781610ff456fe3c73766720786d6c6e733d22687474703a2f2f7777772e77332e6f72672f323030302f737667222076696577426f783d223020302031303020313030223e3c636972636c652063783d223530222063793d2235302220723d223435222066696c6c3d222346464439334222207374726f6b653d2223303030222f3e3c636972636c652063783d223335222063793d2234302220723d2236222066696c6c3d2223303030222f3e3c636972636c652063783d223635222063793d2234302220723d2236222066696c6c3d2223303030222f3e3c7061746820643d224d33302036302051353020383020373020363022207374726f6b653d222330303022207374726f6b652d77696474683d2235222066696c6c3d227472616e73706172656e74222f3e3c2f7376673ea2646970667358221220f8c41ae405bfbfd03326c5e48d1fcdf313dbc21abc6ff1f7c2df9f42c56d0ca464736f6c63430008170033",
  "linkReferences": {},
  "deployedLinkReferences": {}
}