{
  "_format": "hh-sol-artifact-1",
  "contractName": "PlasmaPaymentRouter",
  "sourceName": "contracts/plasma/PlasmaPaymentRouter.sol",
  "abi": [
    {
      "inputs": [
        {
          "internalType": "address",
          "name": "_feeCollector",
          "type": "address"
        },
        {
          "internalType": "uint256",
          "name": "_platformFeeBps",
          "type": "uint256"
        }
      ],
      "stateMutability": "nonpayable",
      "type": "constructor"
    },
    {
      "anonymous": false,
      "inputs": [
        {
          "indexed": true,
          "internalType": "address",
          "name": "oldCollector",
          "type": "address"
        },
        {
          "indexed": true,
          "internalType": "address",
          "name": "newCollector",
          "type": "address"
        }
      ],
      "name": "FeeCollectorUpdated",
      "type": "event"
    },
    {
      "anonymous": false,
      "inputs": [
        {
          "indexed": true,
          "internalType": "address",
          "name": "previousOwner",
          "type": "address"
        },
        {
          "indexed": true,
          "internalType": "address",
          "name": "newOwner",
          "type": "address"
        }
      ],
      "name": "OwnershipTransferred",
      "type": "event"
    },
    {
      "anonymous": false,
      "inputs": [
        {
          "indexed": false,
          "internalType": "uint256",
          "name": "oldBps",
          "type": "uint256"
        },
        {
          "indexed": false,
          "internalType": "uint256",
          "name": "newBps",
          "type": "uint256"
        }
      ],
      "name": "PlatformFeeUpdated",
      "type": "event"
    },
    {
      "anonymous": false,
      "inputs": [
        {
          "indexed": true,
          "internalType": "address",
          "name": "token",
          "type": "address"
        },
        {
          "indexed": true,
          "internalType": "address",
          "name": "from",
          "type": "address"
        },
        {
          "indexed": true,
          "internalType": "address",
          "name": "to",
          "type": "address"
        },
        {
          "indexed": false,
          "internalType": "uint256",
          "name": "grossAmount",
          "type": "uint256"
        },
        {
          "indexed": false,
          "internalType": "uint256",
          "name": "feeAmount",
          "type": "uint256"
        },
        {
          "indexed": false,
          "internalType": "uint256",
          "name": "netAmount",
          "type": "uint256"
        }
      ],
      "name": "Settled",
      "type": "event"
    },
    {
      "inputs": [],
      "name": "feeCollector",
      "outputs": [
        {
          "internalType": "address",
          "name": "",
          "type": "address"
        }
      ],
      "stateMutability": "view",
      "type": "function"
    },
    {
      "inputs": [],
      "name": "owner",
      "outputs": [
        {
          "internalType": "address",
          "name": "",
          "type": "address"
        }
      ],
      "stateMutability": "view",
      "type": "function"
    },
    {
      "inputs": [],
      "name": "platformFeeBps",
      "outputs": [
        {
          "internalType": "uint256",
          "name": "",
          "type": "uint256"
        }
      ],
      "stateMutability": "view",
      "type": "function"
    },
    {
      "inputs": [],
      "name": "renounceOwnership",
      "outputs": [],
      "stateMutability": "nonpayable",
      "type": "function"
    },
    {
      "inputs": [
        {
          "internalType": "address",
          "name": "newCollector",
          "type": "address"
        }
      ],
      "name": "setFeeCollector",
      "outputs": [],
      "stateMutability": "nonpayable",
      "type": "function"
    },
    {
      "inputs": [
        {
          "internalType": "uint256",
          "name": "newBps",
          "type": "uint256"
        }
      ],
      "name": "setPlatformFeeBps",
      "outputs": [],
      "stateMutability": "nonpayable",
      "type": "function"
    },
    {
      "inputs": [
        {
          "internalType": "address",
          "name": "token",
          "type": "address"
        },
        {
          "internalType": "address",
          "name": "from",
          "type": "address"
        },
        {
          "internalType": "address",
          "name": "to",
          "type": "address"
        },
        {
          "internalType": "uint256",
          "name": "grossAmount",
          "type": "uint256"
        }
      ],
      "name": "settle",
      "outputs": [],
      "stateMutability": "nonpayable",
      "type": "function"
    },
    {
      "inputs": [
        {
          "internalType": "address",
          "name": "newOwner",
          "type": "address"
        }
      ],
      "name": "transferOwnership",
      "outputs": [],
      "stateMutability": "nonpayable",
      "type": "function"
    }
  ],
  "bytecode": "0x608060405234801561001057600080fd5b50604051610b8d380380610b8d83398101604081905261002f9161013e565b610038336100ee565b600180556001600160a01b0382166100885760405162461bcd60e51b815260206004820152600e60248201526d0666565436f6c6c6563746f723d360941b60448201526064015b60405180910390fd5b6127108111156100c55760405162461bcd60e51b81526020600482015260086024820152676270733e3130302560c01b604482015260640161007f565b600280546001600160a01b0319166001600160a01b039390931692909217909155600355610178565b600080546001600160a01b038381166001600160a01b0319831681178455604051919092169283917f8be0079c531659141344cd1fd0a4f28419497f9722a3daafe3b4186f6b6457e09190a35050565b6000806040838503121561015157600080fd5b82516001600160a01b038116811461016857600080fd5b6020939093015192949293505050565b610a06806101876000396000f3fe608060405234801561001057600080fd5b50600436106100885760003560e01c8063a42dce801161005b578063a42dce80146100eb578063c415b95c146100fe578063c580c94214610111578063f2fde38b1461012457600080fd5b806322dcd13e1461008d578063543ed042146100a9578063715018a6146100be5780638da5cb5b146100c6575b600080fd5b61009660035481565b6040519081526020015b60405180910390f35b6100bc6100b736600461084d565b610137565b005b6100bc6102af565b6000546001600160a01b03165b6040516001600160a01b0390911681526020016100a0565b6100bc6100f9366004610898565b6102c3565b6002546100d3906001600160a01b031681565b6100bc61011f3660046108ba565b61036b565b6100bc610132366004610898565b6103f1565b61013f61046a565b6001600160a01b0384161580159061015f57506001600160a01b03831615155b801561017357506001600160a01b03821615155b6101b05760405162461bcd60e51b81526020600482015260096024820152683d32b9379030b2323960b91b60448201526064015b60405180910390fd5b600081116101eb5760405162461bcd60e51b81526020600482015260086024820152670616d6f756e743d360c41b60448201526064016101a7565b6000612710600354836101fe91906108e9565b6102089190610906565b905060006102168284610928565b600254909150610235906001600160a01b0388811691889116856104c3565b61024a6001600160a01b0387168686846104c3565b60408051848152602081018490529081018290526001600160a01b0380861691878216918916907f484418379181b5d8ffa2f5741f4f8b47d007671f850746d83f33d1c7210c93f79060600160405180910390a450506102a960018055565b50505050565b6102b761051d565b6102c16000610577565b565b6102cb61051d565b6001600160a01b03811661030f5760405162461bcd60e51b815260206004820152600b60248201526a0636f6c6c6563746f723d360ac1b60448201526064016101a7565b6002546040516001600160a01b038084169216907f5d16ad41baeb009cd23eb8f6c7cde5c2e0cd5acf4a33926ab488875c37c37f3890600090a3600280546001600160a01b0319166001600160a01b0392909216919091179055565b61037361051d565b6127108111156103b05760405162461bcd60e51b81526020600482015260086024820152676270733e3130302560c01b60448201526064016101a7565b60035460408051918252602082018390527fd347e206f25a89b917fc9482f1a2d294d749baa4dc9bde7fb495ee11fe491643910160405180910390a1600355565b6103f961051d565b6001600160a01b03811661045e5760405162461bcd60e51b815260206004820152602660248201527f4f776e61626c653a206e6577206f776e657220697320746865207a65726f206160448201526564647265737360d01b60648201526084016101a7565b61046781610577565b50565b6002600154036104bc5760405162461bcd60e51b815260206004820152601f60248201527f5265656e7472616e637947756172643a207265656e7472616e742063616c6c0060448201526064016101a7565b6002600155565b604080516001600160a01b0385811660248301528416604482015260648082018490528251808303909101815260849091019091526020810180516001600160e01b03166323b872dd60e01b1790526102a99085906105c7565b6000546001600160a01b031633146102c15760405162461bcd60e51b815260206004820181905260248201527f4f776e61626c653a2063616c6c6572206973206e6f7420746865206f776e657260448201526064016101a7565b600080546001600160a01b038381166001600160a01b0319831681178455604051919092169283917f8be0079c531659141344cd1fd0a4f28419497f9722a3daafe3b4186f6b6457e09190a35050565b600061061c826040518060400160405280602081526020017f5361666545524332303a206c6f772d6c6576656c2063616c6c206661696c6564815250856001600160a01b03166106a19092919063ffffffff16565b905080516000148061063d57508080602001905181019061063d919061093b565b61069c5760405162461bcd60e51b815260206004820152602a60248201527f5361666545524332303a204552433230206f7065726174696f6e20646964206e6044820152691bdd081cdd58d8d9595960b21b60648201526084016101a7565b505050565b60606106b084846000856106b8565b949350505050565b6060824710156107195760405162461bcd60e51b815260206004820152602660248201527f416464726573733a20696e73756666696369656e742062616c616e636520666f6044820152651c8818d85b1b60d21b60648201526084016101a7565b600080866001600160a01b031685876040516107359190610981565b60006040518083038185875af1925050503d8060008114610772576040519150601f19603f3d011682016040523d82523d6000602084013e610777565b606091505b509150915061078887838387610793565b979650505050505050565b606083156108025782516000036107fb576001600160a01b0385163b6107fb5760405162461bcd60e51b815260206004820152601d60248201527f416464726573733a2063616c6c20746f206e6f6e2d636f6e747261637400000060448201526064016101a7565b50816106b0565b6106b083838151156108175781518083602001fd5b8060405162461bcd60e51b81526004016101a7919061099d565b80356001600160a01b038116811461084857600080fd5b919050565b6000806000806080858703121561086357600080fd5b61086c85610831565b935061087a60208601610831565b925061088860408601610831565b9396929550929360600135925050565b6000602082840312156108aa57600080fd5b6108b382610831565b9392505050565b6000602082840312156108cc57600080fd5b5035919050565b634e487b7160e01b600052601160045260246000fd5b8082028115828204841417610900576109006108d3565b92915050565b60008261092357634e487b7160e01b600052601260045260246000fd5b500490565b81810381811115610900576109006108d3565b60006020828403121561094d57600080fd5b815180151581146108b357600080fd5b60005b83811015610978578181015183820152602001610960565b50506000910152565b6000825161099381846020870161095d565b9190910192915050565b60208152600082518060208401526109bc81604085016020870161095d565b601f01601f1916919091016040019291505056fea264697066735822122097f4e31b7c712ddc1c42709ae7552855466613be8959fea68731c2f1cd6c2cd164736f6c63430008170033",
  "linkReferences": {},
  "deployedLinkReferences": {}
}