{
  "_format": "hh-sol-artifact-1",
  "contractName": "PlasmaPaymentRouter",
  "sourceName": "contracts/plasma/PlasmaPaymentRouter.sol",
  "abi": [
    {
      "inputs": [
        {
          "internalType": "address",
          "name": "_feeCollector",
          "type": "address"
        },
        {
          "internalType": "uint256",
          "name": "_platformFeeBps",
          "type": "uint256"
        }
      ],
      "stateMutability": "nonpayable",
      "type": "constructor"
    },
    {
      "anonymous": false,
      "inputs": [
        {
          "indexed": true,
          "internalType": "address",
          "name": "oldCollector",
          "type": "address"
        },
        {
          "indexed": true,
          "internalType": "address",
          "name": "newCollector",
          "type": "address"
        }
      ],
      "name": "FeeCollectorUpdated",
      "type": "event"
    },
    {
      "anonymous": false,
      "inputs": [
        {
          "indexed": true,
          "internalType": "address",
          "name": "previousOwner",
          "type": "address"
        },
        {
          "indexed": true,
          "internalType": "address",
          "name": "newOwner",
          "type": "address"
        }
      ],
      "name": "OwnershipTransferred",
      "type": "event"
    },
    {
      "anonymous": false,
      "inputs": [
        {
          "indexed": false,
          "internalType": "uint256",
          "name": "oldBps",
          "type": "uint256"
        },
        {
          "indexed": false,
          "internalType": "uint256",
          "name": "newBps",
          "type": "uint256"
        }
      ],
      "name": "PlatformFeeUpdated",
      "type": "event"
    },
    {
      "anonymous": false,
      "inputs": [
        {
          "indexed": true,
          "internalType": "address",
          "name": "token",
          "type": "address"
        },
        {
          "indexed": true,
          "internalType": "address",
          "name": "from",
          "type": "address"
        },
        {
          "indexed": true,
          "internalType": "address",
          "name": "to",
          "type": "address"
        },
        {
          "indexed": false,
          "internalType": "uint256",
          "name": "grossAmount",
          "type": "uint256"
        },
        {
          "indexed": false,
          "internalType": "uint256",
          "name": "feeAmount",
          "type": "uint256"
        },
        {
          "indexed": false,
          "internalType": "uint256",
          "name": "netAmount",
          "type": "uint256"
        }
      ],
      "name": "Settled",
      "type": "event"
    },
    {
      "inputs": [],
      "name": "feeCollector",
      "outputs": [
        {
          "internalType": "address",
          "name": "",
          "type": "address"
        }
      ],
      "stateMutability": "view",
      "type": "function"
    },
    {
      "inputs": [],
      "name": "owner",
      "outputs": [
        {
          "internalType": "address",
          "name": "",
          "type": "address"
        }
      ],
      "stateMutability": "view",
      "type": "function"
    },
    {
      "inputs": [],
      "name": "platformFeeBps",
      "outputs": [
        {
          "internalType": "uint256",
          "name": "",
          "type": "uint256"
        }
      ],
      "stateMutability": "view",
      "type": "function"
    },
    {
      "inputs": [],
      "name": "renounceOwnership",
      "outputs": [],
      "stateMutability": "nonpayable",
      "type": "function"
    },
    {
      "inputs": [
        {
          "internalType": "address",
          "name": "newCollector",
          "type": "address"
        }
      ],
      "name": "setFeeCollector",
      "outputs": [],
      "stateMutability": "nonpayable",
      "type": "function"
    },
    {
      "inputs": [
        {
          "internalType": "uint256",
          "name": "newBps",
          "type": "uint256"
        }
      ],
      "name": "setPlatformFeeBps",
      "outputs": [],
      "stateMutability": "nonpayable",
      "type": "function"
    },
    {
      "inputs": [
        {
          "internalType": "address",
          "name": "token",
          "type": "address"
        },
        {
          "internalType": "address",
          "name": "from",
          "type": "address"
        },
        {
          "internalType": "address",
          "name": "to",
          "type": "address"
        },
        {
          "internalType": "uint256",
          "name": "grossAmount",
          "type": "uint256"
        }
      ],
      "name": "settle",
      "outputs": [],
      "stateMutability": "nonpayable",
      "type": "function"
    },
    {
      "inputs": [
        {
          "internalType": "address",
          "name": "newOwner",
          "type": "address"
        }
      ],
      "name": "transferOwnership",
      "outputs": [],
      "stateMutability": "nonpayable",
      "type": "function"
    }
  ],
  "bytecode": "0x608060405234801561001057600080fd5b50604051610b25380380610b2583398101604081905261002f9161013a565b610038336100ea565b6001600160a01b0382166100845760405162461bcd60e51b815260206004820152600e60248201526d0666565436f6c6c6563746f723d360941b60448201526064015b60405180910390fd5b6127108111156100c15760405162461bcd60e51b81526020600482015260086024820152676270733e3130302560c01b604482015260640161007b565b600180546001600160a01b0319166001600160a01b039390931692909217909155600255610174565b600080546001600160a01b038381166001600160a01b0319831681178455604051919092169283917f8be0079c531659141344cd1fd0a4f28419497f9722a3daafe3b4186f6b6457e09190a35050565b6000806040838503121561014d57600080fd5b82516001600160a01b038116811461016457600080fd5b6020939093015192949293505050565b6109a2806101836000396000f3fe608060405234801561001057600080fd5b50600436106100885760003560e01c8063a42dce801161005b578063a42dce80146100eb578063c415b95c146100fe578063c580c94214610111578063f2fde38b1461012457600080fd5b806322dcd13e1461008d578063543ed042146100a9578063715018a6146100be5780638da5cb5b146100c6575b600080fd5b61009660025481565b6040519081526020015b60405180910390f35b6100bc6100b73660046107e9565b610137565b005b6100bc61029e565b6000546001600160a01b03165b6040516001600160a01b0390911681526020016100a0565b6100bc6100f9366004610834565b6102b2565b6001546100d3906001600160a01b031681565b6100bc61011f366004610856565b61035a565b6100bc610132366004610834565b6103e0565b6001600160a01b0384161580159061015757506001600160a01b03831615155b801561016b57506001600160a01b03821615155b6101a85760405162461bcd60e51b81526020600482015260096024820152683d32b9379030b2323960b91b60448201526064015b60405180910390fd5b600081116101e35760405162461bcd60e51b81526020600482015260086024820152670616d6f756e743d360c41b604482015260640161019f565b6000612710600254836101f69190610885565b61020091906108a2565b9050600061020e82846108c4565b60015490915061022d906001600160a01b038881169188911685610459565b6102426001600160a01b038716868684610459565b60408051848152602081018490529081018290526001600160a01b0380861691878216918916907f484418379181b5d8ffa2f5741f4f8b47d007671f850746d83f33d1c7210c93f79060600160405180910390a4505050505050565b6102a66104b9565b6102b06000610513565b565b6102ba6104b9565b6001600160a01b0381166102fe5760405162461bcd60e51b815260206004820152600b60248201526a0636f6c6c6563746f723d360ac1b604482015260640161019f565b6001546040516001600160a01b038084169216907f5d16ad41baeb009cd23eb8f6c7cde5c2e0cd5acf4a33926ab488875c37c37f3890600090a3600180546001600160a01b0319166001600160a01b0392909216919091179055565b6103626104b9565b61271081111561039f5760405162461bcd60e51b81526020600482015260086024820152676270733e3130302560c01b604482015260640161019f565b60025460408051918252602082018390527fd347e206f25a89b917fc9482f1a2d294d749baa4dc9bde7fb495ee11fe491643910160405180910390a1600255565b6103e86104b9565b6001600160a01b03811661044d5760405162461bcd60e51b815260206004820152602660248201527f4f776e61626c653a206e6577206f776e657220697320746865207a65726f206160448201526564647265737360d01b606482015260840161019f565b61045681610513565b50565b604080516001600160a01b0385811660248301528416604482015260648082018490528251808303909101815260849091019091526020810180516001600160e01b03166323b872dd60e01b1790526104b3908590610563565b50505050565b6000546001600160a01b031633146102b05760405162461bcd60e51b815260206004820181905260248201527f4f776e61626c653a2063616c6c6572206973206e6f7420746865206f776e6572604482015260640161019f565b600080546001600160a01b038381166001600160a01b0319831681178455604051919092169283917f8be0079c531659141344cd1fd0a4f28419497f9722a3daafe3b4186f6b6457e09190a35050565b60006105b8826040518060400160405280602081526020017f5361666545524332303a206c6f772d6c6576656c2063616c6c206661696c6564815250856001600160a01b031661063d9092919063ffffffff16565b90508051600014806105d95750808060200190518101906105d991906108d7565b6106385760405162461bcd60e51b815260206004820152602a60248201527f5361666545524332303a204552433230206f7065726174696f6e20646964206e6044820152691bdd081cdd58d8d9595960b21b606482015260840161019f565b505050565b606061064c8484600085610654565b949350505050565b6060824710156106b55760405162461bcd60e51b815260206004820152602660248201527f416464726573733a20696e73756666696369656e742062616c616e636520666f6044820152651c8818d85b1b60d21b606482015260840161019f565b600080866001600160a01b031685876040516106d1919061091d565b60006040518083038185875af1925050503d806000811461070e576040519150601f19603f3d011682016040523d82523d6000602084013e610713565b606091505b50915091506107248783838761072f565b979650505050505050565b6060831561079e578251600003610797576001600160a01b0385163b6107975760405162461bcd60e51b815260206004820152601d60248201527f416464726573733a2063616c6c20746f206e6f6e2d636f6e7472616374000000604482015260640161019f565b508161064c565b61064c83838151156107b35781518083602001fd5b8060405162461bcd60e51b815260040161019f9190610939565b80356001600160a01b03811681146107e457600080fd5b919050565b600080600080608085870312156107ff57600080fd5b610808856107cd565b9350610816602086016107cd565b9250610824604086016107cd565b9396929550929360600135925050565b60006020828403121561084657600080fd5b61084f826107cd565b9392505050565b60006020828403121561086857600080fd5b5035919050565b634e487b7160e01b600052601160045260246000fd5b808202811582820484141761089c5761089c61086f565b92915050565b6000826108bf57634e487b7160e01b600052601260045260246000fd5b500490565b8181038181111561089c5761089c61086f565b6000602082840312156108e957600080fd5b8151801515811461084f57600080fd5b60005b838110156109145781810151838201526020016108fc565b50506000910152565b6000825161092f8184602087016108f9565b9190910192915050565b60208152600082518060208401526109588160408501602087016108f9565b601f01601f1916919091016040019291505056fea2646970667358221220f0df7ef41f41222e307bddd55342e3167630fbbe13ec886d5add7244142d347a64736f6c63430008170033",
  "linkReferences": {},
  "deployedLinkReferences": {}
}