{
  "_format": "hh-sol-artifact-1",
  "contractName": "PlasmaPaymentChannel",
  "sourceName": "contracts/plasma/PlasmaPaymentChannel.sol",
  "abi": [
    {
      "inputs": [
        {
          "internalType": "address",
          "name": "_token",
          "type": "address"
        },
        {
          "internalType": "address",
          "name": "_feeCollector",
          "type": "address"
        },
        {
          "internalType": "uint256",
          "name": "_platformFeeBps",
          "type": "uint256"
        }
      ],
      "stateMutability": "nonpayable",
      "type": "constructor"
    },
    {
      "inputs": [],
      "name": "InvalidShortString",
      "type": "error"
    },
    {
      "inputs": [
        {
          "internalType": "string",
          "name": "str",
          "type": "string"
        }
      ],
      "name": "StringTooLong",
      "type": "error"
    },
    {
      "anonymous": false,
      "inputs": [
        {
          "indexed": true,
          "internalType": "address",
          "name": "payer",
          "type": "address"
        },
        {
          "indexed": false,
          "internalType": "uint256",
          "name": "amount",
          "type": "uint256"
        }
      ],
      "name": "ChannelFunded",
      "type": "event"
    },
    {
      "anonymous": false,
      "inputs": [
        {
          "indexed": true,
          "internalType": "address",
          "name": "payer",
          "type": "address"
        },
        {
          "indexed": false,
          "internalType": "uint256",
          "name": "amount",
          "type": "uint256"
        }
      ],
      "name": "ChannelOpened",
      "type": "event"
    },
    {
      "anonymous": false,
      "inputs": [],
      "name": "EIP712DomainChanged",
      "type": "event"
    },
    {
      "anonymous": false,
      "inputs": [
        {
          "indexed": true,
          "internalType": "address",
          "name": "oldCollector",
          "type": "address"
        },
        {
          "indexed": true,
          "internalType": "address",
          "name": "newCollector",
          "type": "address"
        }
      ],
      "name": "FeeCollectorUpdated",
      "type": "event"
    },
    {
      "anonymous": false,
      "inputs": [
        {
          "indexed": true,
          "internalType": "address",
          "name": "collector",
          "type": "address"
        },
        {
          "indexed": false,
          "internalType": "uint256",
          "name": "amount",
          "type": "uint256"
        }
      ],
      "name": "FeesCollected",
      "type": "event"
    },
    {
      "anonymous": false,
      "inputs": [
        {
          "indexed": true,
          "internalType": "address",
          "name": "previousOwner",
          "type": "address"
        },
        {
          "indexed": true,
          "internalType": "address",
          "name": "newOwner",
          "type": "address"
        }
      ],
      "name": "OwnershipTransferred",
      "type": "event"
    },
    {
      "anonymous": false,
      "inputs": [
        {
          "indexed": false,
          "internalType": "uint256",
          "name": "oldBps",
          "type": "uint256"
        },
        {
          "indexed": false,
          "internalType": "uint256",
          "name": "newBps",
          "type": "uint256"
        }
      ],
      "name": "PlatformFeeUpdated",
      "type": "event"
    },
    {
      "anonymous": false,
      "inputs": [
        {
          "indexed": true,
          "internalType": "address",
          "name": "payer",
          "type": "address"
        },
        {
          "indexed": true,
          "internalType": "address",
          "name": "merchant",
          "type": "address"
        },
        {
          "indexed": false,
          "internalType": "uint256",
          "name": "grossAmount",
          "type": "uint256"
        },
        {
          "indexed": false,
          "internalType": "uint256",
          "name": "feeAmount",
          "type": "uint256"
        },
        {
          "indexed": false,
          "internalType": "uint256",
          "name": "netAmount",
          "type": "uint256"
        },
        {
          "indexed": false,
          "internalType": "bytes32",
          "name": "nonce",
          "type": "bytes32"
        }
      ],
      "name": "ReceiptSettled",
      "type": "event"
    },
    {
      "anonymous": false,
      "inputs": [
        {
          "indexed": true,
          "internalType": "address",
          "name": "payer",
          "type": "address"
        },
        {
          "indexed": false,
          "internalType": "uint256",
          "name": "amount",
          "type": "uint256"
        }
      ],
      "name": "Withdrawn",
      "type": "event"
    },
    {
      "inputs": [],
      "name": "RECEIPT_TYPEHASH",
      "outputs": [
        {
          "internalType": "bytes32",
          "name": "",
          "type": "bytes32"
        }
      ],
      "stateMutability": "view",
      "type": "function"
    },
    {
      "inputs": [
        {
          "internalType": "address",
          "name": "",
          "type": "address"
        }
      ],
      "name": "channelBalance",
      "outputs": [
        {
          "internalType": "uint256",
          "name": "",
          "type": "uint256"
        }
      ],
      "stateMutability": "view",
      "type": "function"
    },
    {
      "inputs": [],
      "name": "eip712Domain",
      "outputs": [
        {
          "internalType": "bytes1",
          "name": "fields",
          "type": "bytes1"
        },
        {
          "internalType": "string",
          "name": "name",
          "type": "string"
        },
        {
          "internalType": "string",
          "name": "version",
          "type": "string"
        },
        {
          "internalType": "uint256",
          "name": "chainId",
          "type": "uint256"
        },
        {
          "internalType": "address",
          "name": "verifyingContract",
          "type": "address"
        },
        {
          "internalType": "bytes32",
          "name": "salt",
          "type": "bytes32"
        },
        {
          "internalType": "uint256[]",
          "name": "extensions",
          "type": "uint256[]"
        }
      ],
      "stateMutability": "view",
      "type": "function"
    },
    {
      "inputs": [],
      "name": "feeCollector",
      "outputs": [
        {
          "internalType": "address",
          "name": "",
          "type": "address"
        }
      ],
      "stateMutability": "view",
      "type": "function"
    },
    {
      "inputs": [
        {
          "internalType": "address",
          "name": "",
          "type": "address"
        },
        {
          "internalType": "bytes32",
          "name": "",
          "type": "bytes32"
        }
      ],
      "name": "nonceUsed",
      "outputs": [
        {
          "internalType": "bool",
          "name": "",
          "type": "bool"
        }
      ],
      "stateMutability": "view",
      "type": "function"
    },
    {
      "inputs": [
        {
          "internalType": "uint256",
          "name": "amount",
          "type": "uint256"
        }
      ],
      "name": "open",
      "outputs": [],
      "stateMutability": "nonpayable",
      "type": "function"
    },
    {
      "inputs": [],
      "name": "owner",
      "outputs": [
        {
          "internalType": "address",
          "name": "",
          "type": "address"
        }
      ],
      "stateMutability": "view",
      "type": "function"
    },
    {
      "inputs": [],
      "name": "platformFeeBps",
      "outputs": [
        {
          "internalType": "uint256",
          "name": "",
          "type": "uint256"
        }
      ],
      "stateMutability": "view",
      "type": "function"
    },
    {
      "inputs": [],
      "name": "renounceOwnership",
      "outputs": [],
      "stateMutability": "nonpayable",
      "type": "function"
    },
    {
      "inputs": [
        {
          "internalType": "address",
          "name": "newCollector",
          "type": "address"
        }
      ],
      "name": "setFeeCollector",
      "outputs": [],
      "stateMutability": "nonpayable",
      "type": "function"
    },
    {
      "inputs": [
        {
          "internalType": "uint256",
          "name": "newBps",
          "type": "uint256"
        }
      ],
      "name": "setPlatformFeeBps",
      "outputs": [],
      "stateMutability": "nonpayable",
      "type": "function"
    },
    {
      "inputs": [
        {
          "components": [
            {
              "internalType": "address",
              "name": "payer",
              "type": "address"
            },
            {
              "internalType": "address",
              "name": "merchant",
              "type": "address"
            },
            {
              "internalType": "uint256",
              "name": "amount",
              "type": "uint256"
            },
            {
              "internalType": "bytes32",
              "name": "serviceId",
              "type": "bytes32"
            },
            {
              "internalType": "bytes32",
              "name": "nonce",
              "type": "bytes32"
            },
            {
              "internalType": "uint64",
              "name": "expiry",
              "type": "uint64"
            }
          ],
          "internalType": "struct PlasmaPaymentChannel.Receipt[]",
          "name": "receipts",
          "type": "tuple[]"
        },
        {
          "internalType": "bytes[]",
          "name": "signatures",
          "type": "bytes[]"
        }
      ],
      "name": "settleBatch",
      "outputs": [],
      "stateMutability": "nonpayable",
      "type": "function"
    },
    {
      "inputs": [],
      "name": "token",
      "outputs": [
        {
          "internalType": "contract IERC20",
          "name": "",
          "type": "address"
        }
      ],
      "stateMutability": "view",
      "type": "function"
    },
    {
      "inputs": [
        {
          "internalType": "uint256",
          "name": "amount",
          "type": "uint256"
        }
      ],
      "name": "topUp",
      "outputs": [],
      "stateMutability": "nonpayable",
      "type": "function"
    },
    {
      "inputs": [
        {
          "internalType": "address",
          "name": "newOwner",
          "type": "address"
        }
      ],
      "name": "transferOwnership",
      "outputs": [],
      "stateMutability": "nonpayable",
      "type": "function"
    },
    {
      "inputs": [
        {
          "internalType": "uint256",
          "name": "amount",
          "type": "uint256"
        }
      ],
      "name": "withdraw",
      "outputs": [],
      "stateMutability": "nonpayable",
      "type": "function"
    }
  ],
  "bytecode": "0x6101806040523480156200001257600080fd5b506040516200202038038062002020833981016040819052620000359162000315565b6040518060400160405280601481526020017f506c61736d615061796d656e744368616e6e656c000000000000000000000000815250604051806040016040528060018152602001603160f81b8152506200009f620000996200022860201b60201c565b6200022c565b620000ac8260016200027c565b61012052620000bd8160026200027c565b61014052815160208084019190912060e052815190820120610100524660a0526200014b60e05161010051604080517f8b73c3c69bb8fe3d512ecc4cf759cc79239f7b179b0ffacaa9a75d522b39400f60208201529081019290925260608201524660808201523060a082015260009060c00160405160208183030381529060405280519060200120905090565b60805250503060c05260016003556001600160a01b038316158015906200017a57506001600160a01b03821615155b620001b85760405162461bcd60e51b81526020600482015260096024820152683d32b9379030b2323960b91b60448201526064015b60405180910390fd5b612710811115620001f75760405162461bcd60e51b81526020600482015260086024820152676270733e3130302560c01b6044820152606401620001af565b6001600160a01b0392831661016052600480546001600160a01b03191692909316919091179091556005556200053f565b3390565b600080546001600160a01b038381166001600160a01b0319831681178455604051919092169283917f8be0079c531659141344cd1fd0a4f28419497f9722a3daafe3b4186f6b6457e09190a35050565b60006020835110156200029c576200029483620002b5565b9050620002af565b81620002a98482620003fd565b5060ff90505b92915050565b600080829050601f81511115620002e3578260405163305a27a960e01b8152600401620001af9190620004c9565b8051620002f0826200051a565b179392505050565b80516001600160a01b03811681146200031057600080fd5b919050565b6000806000606084860312156200032b57600080fd5b6200033684620002f8565b92506200034660208501620002f8565b9150604084015190509250925092565b634e487b7160e01b600052604160045260246000fd5b600181811c908216806200038157607f821691505b602082108103620003a257634e487b7160e01b600052602260045260246000fd5b50919050565b601f821115620003f8576000816000526020600020601f850160051c81016020861015620003d35750805b601f850160051c820191505b81811015620003f457828155600101620003df565b5050505b505050565b81516001600160401b0381111562000419576200041962000356565b62000431816200042a84546200036c565b84620003a8565b602080601f831160018114620004695760008415620004505750858301515b600019600386901b1c1916600185901b178555620003f4565b600085815260208120601f198616915b828110156200049a5788860151825594840194600190910190840162000479565b5085821015620004b95787850151600019600388901b60f8161c191681555b5050505050600190811b01905550565b60006020808352835180602085015260005b81811015620004f957858101830151858201604001528201620004db565b506000604082860101526040601f19601f8301168501019250505092915050565b80516020808301519190811015620003a25760001960209190910360031b1b16919050565b60805160a05160c05160e05161010051610120516101405161016051611a58620005c86000396000818161028d015281816103520152818161041e015281816104e001528181610b700152610c4e015260006105870152600061055c015260006111d0015260006111a8015260006111030152600061112d015260006111570152611a586000f3fe608060405234801561001057600080fd5b50600436106101005760003560e01c806395850f5911610097578063c580c94211610066578063c580c9421461024f578063e0601da314610262578063f2fde38b14610275578063fc0c546a1461028857600080fd5b806395850f59146101e2578063a42dce8014610209578063ad81ea391461021c578063c415b95c1461023c57600080fd5b8063690e7c09116100d3578063690e7c0914610187578063715018a61461019a57806384b0196e146101a25780638da5cb5b146101bd57600080fd5b80630e230f971461010557806322dcd13e146101485780632e1a7d4d1461015f57806350017f3e14610174575b600080fd5b61013361011336600461164d565b600760209081526000928352604080842090915290825290205460ff1681565b60405190151581526020015b60405180910390f35b61015160055481565b60405190815260200161013f565b61017261016d366004611677565b6102af565b005b610172610182366004611677565b6103c4565b610172610195366004611677565b610486565b61017261053a565b6101aa61054e565b60405161013f97969594939291906116e0565b6000546001600160a01b03165b6040516001600160a01b03909116815260200161013f565b6101517f1f68ab0bf1d790706278513869589f02bb232758466f8855177750090250760081565b610172610217366004611779565b6105d7565b61015161022a366004611779565b60066020526000908152604090205481565b6004546101ca906001600160a01b031681565b61017261025d366004611677565b61067f565b61017261027036600461179b565b610705565b610172610283366004611779565b610ccb565b6101ca7f000000000000000000000000000000000000000000000000000000000000000081565b6102b7610d41565b600081116102e05760405162461bcd60e51b81526004016102d790611863565b60405180910390fd5b336000908152600660205260409020548181101561032f5760405162461bcd60e51b815260206004820152600c60248201526b1a5b9cdd59999a58da595b9d60a21b60448201526064016102d7565b610339828261189b565b33600081815260066020526040902091909155610381907f00000000000000000000000000000000000000000000000000000000000000006001600160a01b03169084610d9a565b60405182815233907f7084f5476618d8e60b11ef0d7d3f06914655adb8793e28ff7f018d4c76d505d59060200160405180910390a2506103c16001600355565b50565b6103cc610d41565b600081116103ec5760405162461bcd60e51b81526004016102d790611863565b336000908152600660205260408120805483929061040b9084906118ae565b9091555061044690506001600160a01b037f000000000000000000000000000000000000000000000000000000000000000016333084610e02565b60405181815233907f098da306ddd2537f6447ac21569057632d7b220958901a59f69213c81495e648906020015b60405180910390a26103c16001600355565b61048e610d41565b600081116104ae5760405162461bcd60e51b81526004016102d790611863565b33600090815260066020526040812080548392906104cd9084906118ae565b9091555061050890506001600160a01b037f000000000000000000000000000000000000000000000000000000000000000016333084610e02565b60405181815233907faf952b0a28349f5ffff2d98aa9050ea845adbe423ff73ac5da5f268834ae3ac090602001610474565b610542610e3a565b61054c6000610e94565b565b6000606080828080836105827f00000000000000000000000000000000000000000000000000000000000000006001610ee4565b6105ad7f00000000000000000000000000000000000000000000000000000000000000006002610ee4565b60408051600080825260208201909252600f60f81b9b939a50919850469750309650945092509050565b6105df610e3a565b6001600160a01b0381166106235760405162461bcd60e51b815260206004820152600b60248201526a0636f6c6c6563746f723d360ac1b60448201526064016102d7565b6004546040516001600160a01b038084169216907f5d16ad41baeb009cd23eb8f6c7cde5c2e0cd5acf4a33926ab488875c37c37f3890600090a3600480546001600160a01b0319166001600160a01b0392909216919091179055565b610687610e3a565b6127108111156106c45760405162461bcd60e51b81526020600482015260086024820152676270733e3130302560c01b60448201526064016102d7565b60055460408051918252602082018390527fd347e206f25a89b917fc9482f1a2d294d749baa4dc9bde7fb495ee11fe491643910160405180910390a1600555565b61070d610d41565b82811461074b5760405162461bcd60e51b815260206004820152600c60248201526b0d8cadc40dad2e6dac2e8c6d60a31b60448201526064016102d7565b6000805b84811015610c36573686868381811061076a5761076a6118c1565b905060c0020190504267ffffffffffffffff168160a001602081019061079091906118d7565b67ffffffffffffffff1610156107d25760405162461bcd60e51b8152602060048201526007602482015266195e1c1a5c995960ca1b60448201526064016102d7565b600760006107e36020840184611779565b6001600160a01b03168152602080820192909252604090810160009081206080850135825290925290205460ff161561084b5760405162461bcd60e51b815260206004820152600a6024820152691b9bdb98d9481d5cd95960b21b60448201526064016102d7565b600081604001351161086f5760405162461bcd60e51b81526004016102d790611863565b60007f1f68ab0bf1d790706278513869589f02bb232758466f8855177750090250760061089f6020840184611779565b6108af6040850160208601611779565b6040850135606086013560808701356108ce60c0890160a08a016118d7565b6040805160208101989098526001600160a01b0396871690880152949093166060860152608085019190915260a084015260c083015267ffffffffffffffff1660e082015261010001604051602081830303815290604052805190602001209050600061093a82610f91565b905060006109a082898988818110610954576109546118c1565b90506020028101906109669190611901565b8080601f016020809104026020016040519081016040528093929190818152602001838380828437600092019190915250610fbe92505050565b90506109af6020850185611779565b6001600160a01b0316816001600160a01b03161480156109d757506001600160a01b03811615155b610a0d5760405162461bcd60e51b81526020600482015260076024820152666261642073696760c81b60448201526064016102d7565b600160076000610a206020880188611779565b6001600160a01b0316815260208082019290925260409081016000908120608089013582528352908120805460ff1916931515939093179092556006908290610a6b90880188611779565b6001600160a01b03166001600160a01b031681526020019081526020016000205490508460400135811015610ad85760405162461bcd60e51b815260206004820152601360248201527218da185b9b995b081d5b99195c999d5b991959606a1b60448201526064016102d7565b60006127106005548760400135610aef9190611948565b610af9919061195f565b90506000610b0b82604089013561189b565b9050610b1b60408801358461189b565b60066000610b2c60208b018b611779565b6001600160a01b03166001600160a01b0316815260200190815260200160002081905550610b97876020016020810190610b669190611779565b6001600160a01b037f0000000000000000000000000000000000000000000000000000000000000000169083610d9a565b610ba1828a6118ae565b9850610bb36040880160208901611779565b6001600160a01b0316610bc96020890189611779565b60408051818b01358152602081018690529081018490526080808b013560608301526001600160a01b0392909216917f4bf881f532ccc17ea84b6abcdc59427fc12c1cd910188b0b177d7e35f0896866910160405180910390a350506001909501945061074f9350505050565b508015610cba57600454610c77906001600160a01b037f00000000000000000000000000000000000000000000000000000000000000008116911683610d9a565b6004546040518281526001600160a01b03909116907f9dc46f23cfb5ddcad0ae7ea2be38d47fec07bb9382ec7e564efc69e036dd66ce9060200160405180910390a25b50610cc56001600355565b50505050565b610cd3610e3a565b6001600160a01b038116610d385760405162461bcd60e51b815260206004820152602660248201527f4f776e61626c653a206e6577206f776e657220697320746865207a65726f206160448201526564647265737360d01b60648201526084016102d7565b6103c181610e94565b600260035403610d935760405162461bcd60e51b815260206004820152601f60248201527f5265656e7472616e637947756172643a207265656e7472616e742063616c6c0060448201526064016102d7565b6002600355565b6040516001600160a01b038316602482015260448101829052610dfd90849063a9059cbb60e01b906064015b60408051601f198184030181529190526020810180516001600160e01b03166001600160e01b031990931692909217909152610fe2565b505050565b6040516001600160a01b0380851660248301528316604482015260648101829052610cc59085906323b872dd60e01b90608401610dc6565b6000546001600160a01b0316331461054c5760405162461bcd60e51b815260206004820181905260248201527f4f776e61626c653a2063616c6c6572206973206e6f7420746865206f776e657260448201526064016102d7565b600080546001600160a01b038381166001600160a01b0319831681178455604051919092169283917f8be0079c531659141344cd1fd0a4f28419497f9722a3daafe3b4186f6b6457e09190a35050565b606060ff8314610efe57610ef7836110b7565b9050610f8b565b818054610f0a90611981565b80601f0160208091040260200160405190810160405280929190818152602001828054610f3690611981565b8015610f835780601f10610f5857610100808354040283529160200191610f83565b820191906000526020600020905b815481529060010190602001808311610f6657829003601f168201915b505050505090505b92915050565b6000610f8b610f9e6110f6565b8360405161190160f01b8152600281019290925260228201526042902090565b6000806000610fcd8585611226565b91509150610fda8161126b565b509392505050565b6000611037826040518060400160405280602081526020017f5361666545524332303a206c6f772d6c6576656c2063616c6c206661696c6564815250856001600160a01b03166113b59092919063ffffffff16565b905080516000148061105857508080602001905181019061105891906119bb565b610dfd5760405162461bcd60e51b815260206004820152602a60248201527f5361666545524332303a204552433230206f7065726174696f6e20646964206e6044820152691bdd081cdd58d8d9595960b21b60648201526084016102d7565b606060006110c4836113cc565b604080516020808252818301909252919250600091906020820181803683375050509182525060208101929092525090565b6000306001600160a01b037f00000000000000000000000000000000000000000000000000000000000000001614801561114f57507f000000000000000000000000000000000000000000000000000000000000000046145b1561117957507f000000000000000000000000000000000000000000000000000000000000000090565b611221604080517f8b73c3c69bb8fe3d512ecc4cf759cc79239f7b179b0ffacaa9a75d522b39400f60208201527f0000000000000000000000000000000000000000000000000000000000000000918101919091527f000000000000000000000000000000000000000000000000000000000000000060608201524660808201523060a082015260009060c00160405160208183030381529060405280519060200120905090565b905090565b600080825160410361125c5760208301516040840151606085015160001a611250878285856113f4565b94509450505050611264565b506000905060025b9250929050565b600081600481111561127f5761127f6119dd565b036112875750565b600181600481111561129b5761129b6119dd565b036112e85760405162461bcd60e51b815260206004820152601860248201527f45434453413a20696e76616c6964207369676e6174757265000000000000000060448201526064016102d7565b60028160048111156112fc576112fc6119dd565b036113495760405162461bcd60e51b815260206004820152601f60248201527f45434453413a20696e76616c6964207369676e6174757265206c656e6774680060448201526064016102d7565b600381600481111561135d5761135d6119dd565b036103c15760405162461bcd60e51b815260206004820152602260248201527f45434453413a20696e76616c6964207369676e6174757265202773272076616c604482015261756560f01b60648201526084016102d7565b60606113c484846000856114b8565b949350505050565b600060ff8216601f811115610f8b57604051632cd44ac360e21b815260040160405180910390fd5b6000807f7fffffffffffffffffffffffffffffff5d576e7357a4501ddfe92f46681b20a083111561142b57506000905060036114af565b6040805160008082526020820180845289905260ff881692820192909252606081018690526080810185905260019060a0016020604051602081039080840390855afa15801561147f573d6000803e3d6000fd5b5050604051601f1901519150506001600160a01b0381166114a8576000600192509250506114af565b9150600090505b94509492505050565b6060824710156115195760405162461bcd60e51b815260206004820152602660248201527f416464726573733a20696e73756666696369656e742062616c616e636520666f6044820152651c8818d85b1b60d21b60648201526084016102d7565b600080866001600160a01b0316858760405161153591906119f3565b60006040518083038185875af1925050503d8060008114611572576040519150601f19603f3d011682016040523d82523d6000602084013e611577565b606091505b509150915061158887838387611593565b979650505050505050565b606083156116025782516000036115fb576001600160a01b0385163b6115fb5760405162461bcd60e51b815260206004820152601d60248201527f416464726573733a2063616c6c20746f206e6f6e2d636f6e747261637400000060448201526064016102d7565b50816113c4565b6113c483838151156116175781518083602001fd5b8060405162461bcd60e51b81526004016102d79190611a0f565b80356001600160a01b038116811461164857600080fd5b919050565b6000806040838503121561166057600080fd5b61166983611631565b946020939093013593505050565b60006020828403121561168957600080fd5b5035919050565b60005b838110156116ab578181015183820152602001611693565b50506000910152565b600081518084526116cc816020860160208601611690565b601f01601f19169290920160200192915050565b60ff60f81b881681526000602060e0602084015261170160e084018a6116b4565b8381036040850152611713818a6116b4565b606085018990526001600160a01b038816608086015260a0850187905284810360c08601528551808252602080880193509091019060005b818110156117675783518352928401929184019160010161174b565b50909c9b505050505050505050505050565b60006020828403121561178b57600080fd5b61179482611631565b9392505050565b600080600080604085870312156117b157600080fd5b843567ffffffffffffffff808211156117c957600080fd5b818701915087601f8301126117dd57600080fd5b8135818111156117ec57600080fd5b88602060c08302850101111561180157600080fd5b60209283019650945090860135908082111561181c57600080fd5b818701915087601f83011261183057600080fd5b81358181111561183f57600080fd5b8860208260051b850101111561185457600080fd5b95989497505060200194505050565b6020808252600890820152670616d6f756e743d360c41b604082015260600190565b634e487b7160e01b600052601160045260246000fd5b81810381811115610f8b57610f8b611885565b80820180821115610f8b57610f8b611885565b634e487b7160e01b600052603260045260246000fd5b6000602082840312156118e957600080fd5b813567ffffffffffffffff8116811461179457600080fd5b6000808335601e1984360301811261191857600080fd5b83018035915067ffffffffffffffff82111561193357600080fd5b60200191503681900382131561126457600080fd5b8082028115828204841417610f8b57610f8b611885565b60008261197c57634e487b7160e01b600052601260045260246000fd5b500490565b600181811c9082168061199557607f821691505b6020821081036119b557634e487b7160e01b600052602260045260246000fd5b50919050565b6000602082840312156119cd57600080fd5b8151801515811461179457600080fd5b634e487b7160e01b600052602160045260246000fd5b60008251611a05818460208701611690565b9190910192915050565b60208152600061179460208301846116b456fea264697066735822122054e22ed9ac306ad7cd641f2e4a86b3a11ad8e84474e28ca11075512ce80f7fa964736f6c63430008170033",
  "linkReferences": {},
  "deployedLinkReferences": {}
}